0292012450999992008010106004+62600+009667FM-12+060699999V0203201N001012200019N0300001N1-00761-01281103661ADDAA112000091AA224000091AJ100549199999999AY101061AY201061GA1001+999999999GF100991001001999999001001IA1239KA1120N-00951MA1999999095981MD1310111+9999MW1021REMSYN094AAXX  01061 01245 11980 03201 11076 21128 39598 40366 53011 60002 70200 333 21095 47054 70000;EQDQ01  00002PRCP24Q02  00002PRCP12
