0292012450999992008010106004+62600+009667FM-12+060699999V0203201N001012200019N0300001N1-00761-01281103661ADDAA112000091AA224000091AJ100549199999999AY101061AY201061GA1001+999999999GF100991001001999999001001IA1239KA1120N-00951MA1999999095981MD1310111+9999MW1021REMSYN094AAXX  01061 01245 11980 03201 11076 21128 39598 40366 53011 60002 70200 333 21095 47054 70000;EQDQ01  00002PRCP24Q02  00002PRCP12
0161012450999992008010109004+62600+009667FM-12+060699999V0202701N001012200019N0300001N1-00701-01241103741ADDAY101031AY201031GF101991011051017501001001MA1999999096071MD1310101+9999MW1031REMSYN072AAXX  01091 01245 41780 12701 11070 21124 39607 40374 53010 70300 81500;
0167012450999992008010112004+62600+009667FM-12+060699999V0203601N001012200019N0300001N1-00501-01081103691ADDAY101061AY201061GF101991011021017501001001MA1999999096081MD1010001+9999MW1021REMSYN078AAXX  01121 01245 11780 13601 11050 21108 39608 40369 50000 6//// 70200 81200;
0220012450999992008010118004+62600+009667FM-12+060699999V0200501N001010120019N0300001N1-00361-01031103681ADDAA112000091AY121061AY201061GF106991061011012501001001KA1999M-00331MA1999999096121MD1310091+9999MW1031REMSYN088AAXX  01181 01245 11680 60501 11036 21103 39612 40368 53009 60002 70320 86100 333 11033;EQDQ01  00002PRCP12
0282012450999992008010206004+62600+009667FM-12+060699999V0203301N003012200019N0300001N1-00181-00781103601ADDAA112000091AA224000091AJ100509199999999AY121061AY201061GF104991041011012501001001IA1239KA1120N-00501MA1999999096081MD1710061+9999MW1011REMSYN100AAXX  02061 01245 11680 43303 11018 21078 39608 40360 57006 60002 70120 84100 333 21050 47050 70000;EQDQ01  00002PRCP24Q02  00002PRCP12
0161012450999992008010209004+62600+009667FM-12+060699999V0203201N003012200019N0200001N1-00071-00691103691ADDAY101031AY201031GF104991041011008001001001MA1999999096211MD1210131+9999MW1031REMSYN072AAXX  02091 01245 41570 43203 11007 21069 39621 40369 52013 70300 84100;
0167012450999992008010212004+62600+009667FM-12+060699999V0203601N003012200019N0300001N1-00091-00771103811ADDAY101061AY201061GF103991031081008001001001MA1999999096311MD1010071+9999MW1011REMSYN078AAXX  02121 01245 11580 33603 11009 21077 39631 40381 50007 6//// 70100 83800;
0220012450999992008010218004+62600+009667FM-12+060699999V0200501N001012200019N0200001N1-00191-00871103871ADDAA112000091AY111061AY201061GF103991031011012501001001KA1999M+00061MA1999999096331MD1810031+9999MW1011REMSYN088AAXX  02181 01245 11670 30501 11019 21087 39633 40387 58003 60002 70110 83100 333 10006;EQDQ01  00002PRCP12
0282012450999992008010306004+62600+009667FM-12+060699999V0202301N001012200019N0300001N1-00571-01231103771ADDAA112000091AA224000091AJ100499199999999AY101061AY201061GF101991011011012501001001IA1239KA1120N-00601MA1999999096151MD1510041+9999MW1011REMSYN100AAXX  03061 01245 11680 12301 11057 21123 39615 40377 55004 60002 70100 81100 333 21060 47049 70000;EQDQ01  00002PRCP24Q02  00002PRCP12
0161012450999992008010309004+62600+009667FM-12+060699999V0200301N007010300019N0200001N1-00551-01271103731ADDAY121031AY201031GF106991031011004501011001MA1999999096111MD1810041+9999MW1031REMSYN072AAXX  03091 01245 41470 60307 11055 21127 39611 40373 58004 70320 83110;
0167012450999992008010312004+62600+009667FM-12+060699999V0201201N010012200019N0200001N1-00501-01271103491ADDAY131061AY211061GF104991041011008001001001MA1999999095911MD1810181+9999MW1361REMSYN078AAXX  03121 01245 11570 41210 11050 21127 39591 40349 58018 6//// 73631 84100;
0220012450999992008010318004+62600+009667FM-12+060699999V0202301N007012200019N0200001N1-00621-01281103411ADDAA112000091AY181061AY231061GF103991031011012501001001KA1999M-00321MA1999999095801MD1510001+9999MW1011REMSYN088AAXX  03181 01245 11670 32307 11062 21128 39580 40341 55000 69902 70183 83100 333 11032;EQDQ01  00002PRCP12
0282012450999992008010406004+62600+009667FM-12+060699999V0201201N010012200019N0200001N1-00531-01191103261ADDAA112000091AA224000091AJ100419199999999AY101061AY201061GF104991041011008001001001IA1239KA1120N-00691MA1999999095671MD1610181+9999MW1031REMSYN100AAXX  04061 01245 11570 41210 11053 21119 39567 40326 56018 60002 70300 84100 333 21069 47041 70000;EQDQ01  00002PRCP24Q02  00002PRCP12
0161012450999992008010409004+62600+009667FM-12+060699999V0201201N012010300019N0200001N1-00501-01381103031ADDAY131031AY211031GF106991041011004501061001MA1999999095471MD1810201+9999MW1361REMSYN072AAXX  04091 01245 41470 61212 11050 21138 39547 40303 58020 73631 84160;
0167012450999992008010412004+62600+009667FM-12+060699999V0201901N010010300019N0200001N1-00491-01231102941ADDAY131061AY211061GF106991041011002501061001MA1999999095401MD1810081+9999MW1021REMSYN078AAXX  04121 01245 11370 61910 11049 21123 39540 40294 58008 6//// 70231 84160;
0220012450999992008010418004+62600+009667FM-12+060699999V0202301N015010042019N0200001N1-00511-01251102251ADDAA112000091AY181061AY231061GF107991071011004501999999KA1999M-00271MA1999999094751MD1810421+9999MW1361REMSYN088AAXX  04181 01245 11470 72315 11051 21125 39475 40225 58042 69902 73683 871// 333 11027;EQDQ01  00002PRCP12
0282012450999992008010506004+62600+009667FM-12+060699999V0200901N010010075019N0200001N1-00651-01211101641ADDAA112000091AA224000091AJ100349199999999AY131061AY221061GF105991051011008001001001IA1239KA1120N-00801MA1999999094151MD1810321+9999MW1011REMSYN100AAXX  05061 01245 11570 50910 11065 21121 39415 40164 58032 60002 70132 85100 333 21080 47034 70000;EQDQ01  00002PRCP24Q02  00002PRCP12
0161012450999992008010509004+62600+009667FM-12+060699999V0203601N012010021019N0200001N1-00521-01121101371ADDAY131031AY221031GF107991061011002501041001MA1999999093931MD1610231+9999MW1031REMSYN072AAXX  05091 01245 41370 73612 11052 21112 39393 40137 56023 70332 86140;
0167012450999992008010512004+62600+009667FM-12+060699999V0201201N012010021019N0200001N1-00521-01091101031ADDAY181061AY231061GF107991061011002501041999MA1999999093621MD1810311+9999MW1851REMSYN078AAXX  05121 01245 11370 71212 11052 21109 39362 40103 58031 6//// 78583 8614/;
0201012450999992008010518004+62600+009667FM-12+060699999V0201201N015010042019N0200001N1-00351-01041100531ADDAA112000021AY181061AY231061GF105991051011004501001001KA1999M-00251MA1999999093201MD1510151+9999MW1361REMSYN088AAXX  05181 01245 11470 51215 11035 21104 39320 40053 55015 69902 73683 85100 333 11025;
0266012450999992008010606004+62600+009667FM-12+060699999V0202201N003012200019N0200001N1-00301-01031100281ADDAA112000091AA224000021AJ100559199999999AY131061AY221061GF104991041011004501001001IA1239KA1120N-00401MA1999999092971MD1510041+9999MW1011REMSYN100AAXX  06061 01245 11470 42203 11030 21103 39297 40028 55004 60002 70132 84100 333 21040 47055 70000;EQDQ01  00002PRCP12
0161012450999992008010609004+62600+009667FM-12+060699999V0202201N007010075019N0200001N1-00321-01011100191ADDAY121031AY211031GF108991071011008001011999MA1999999092881MD1510111+9999MW1031REMSYN072AAXX  06091 01245 41570 82207 11032 21101 39288 40019 55011 70321 8711/;
0167012450999992008010612004+62600+009667FM-12+060699999V0203201N005012200019N0300001N1-00281-01041100221ADDAY121061AY201061GF104991011011012501011081MA1999999092921MD1210041+9999MW1011REMSYN078AAXX  06121 01245 11680 43205 11028 21104 39292 40022 52004 6//// 70120 81118;
0230012450999992008010618004+62600+009667FM-12+060699999V0202701N001012200019N0300001N1-00291-01001100191ADDAA112000091AY101061AY201061GA1001+999999999GF100991001001999999001001KA1999M-00161MA1999999092901MD1310021+9999MW1011REMSYN082AAXX  06181 01245 11980 02701 11029 21100 39290 40019 53002 60002 70100 333 11016;EQDQ01  00002PRCP12
0292012450999992008010706004+62600+009667FM-12+060699999V0203601N003012200019N0300001N1-00251-00921100331ADDAA112000091AA224000091AJ100349199999999AY101061AY201061GA1001+999999999GF100991001001999999001001IA1239KA1120N-00281MA1999999093031MD1210031+9999MW1021REMSYN094AAXX  07061 01245 11980 03603 11025 21092 39303 40033 52003 60002 70200 333 21028 47034 70000;EQDQ01  00002PRCP24Q02  00002PRCP12
0161012450999992008010709004+62600+009667FM-12+060699999V0203301N003012200019N0300001N1-00211-00891100331ADDAY101031AY201031GF104991011011012501031001MA1999999093051MD1210021+9999MW1031REMSYN072AAXX  07091 01245 41680 43303 11021 21089 39305 40033 52002 70300 81130;
0167012450999992008010712004+62600+009667FM-12+060699999V0200301N005012200019N0300001N1-00031-00691100221ADDAY101061AY201061GF104991011011012501031011MA1999999093001MD1810051+9999MW1021REMSYN078AAXX  07121 01245 11680 40305 11003 21069 39300 40022 58005 6//// 70200 81131;
0220012450999992008010718004+62600+009667FM-12+060699999V0203201N003012200019N0300001N1+00061-00691100221ADDAA112000091AY101061AY201061GF103991031011012501001001KA1999M+00101MA1999999093021MD1510031+9999MW1011REMSYN088AAXX  07181 01245 11680 33203 10006 21069 39302 40022 55003 60002 70100 83100 333 10010;EQDQ01  00002PRCP12
0282012450999992008010806004+62600+009667FM-12+060699999V0202301N001012200019N0300001N1+00001-00511100141ADDAA112000091AA224000091AJ100349199999999AY101061AY201061GF104991041011012501001001IA1239KA1120N-00121MA1999999092921MD1710021+9999MW1021REMSYN100AAXX  08061 01245 11680 42301 10000 21051 39292 40014 57002 60002 70200 84100 333 21012 47034 70000;EQDQ01  00002PRCP24Q02  00002PRCP12
0161012450999992008010809004+62600+009667FM-12+060699999V0203201N001010300019N0300001N1-00081-00631100141ADDAY121031AY201031GF107991041011008001041001MA1999999092911MD1510021+9999MW1031REMSYN072AAXX  08091 01245 41580 73201 11008 21063 39291 40014 55002 70320 84140;
0167012450999992008010812004+62600+009667FM-12+060699999V0202301N003010300019N0300001N1-00051-00841100161ADDAY121061AY201061GF106991041081008001031001MA1999999092931MD1010031+9999MW1011REMSYN078AAXX  08121 01245 11580 62303 11005 21084 39293 40016 50003 6//// 70120 84830;
0230012450999992008010818004+62600+009667FM-12+060699999V0202301N003012200019N0300001N1-00131-00791100291ADDAA112000091AY121061AY201061GA1001+999999999GF100991001001999999001001KA1999M+00101MA1999999093031MD1210091+9999MW1011REMSYN082AAXX  08181 01245 11980 02303 11013 21079 39303 40029 52009 60002 70120 333 10010;EQDQ01  00002PRCP12
0282012450999992008010906004+62600+009667FM-12+060699999V0203601N003012200019N0300001N1-00341-00911100161ADDAA112000091AA224000091AJ100329199999999AY101061AY201061GF102991021011012501001001IA1239KA1120N-00451MA1999999092861MD1810241+9999MW1031REMSYN100AAXX  09061 01245 11680 23603 11034 21091 39286 40016 58024 60002 70300 82100 333 21045 47032 70000;EQDQ01  00002PRCP24Q02  00002PRCP12
0161012450999992008010909004+62600+009667FM-12+060699999V0203201N005019999999N0300001N1-00211-00791099831ADDAY121031AY201031GF107991071001008001071999MA1999999092581MD1610291+9999MW1031REMSYN072AAXX  09091 01245 41580 73205 11021 21079 39258 49983 56029 70320 8707/;
0167012450999992008010912004+62600+009667FM-12+060699999V0202301N003019999999N0200001N1-00051-00601099401ADDAY171061AY211061GF107991071001008001071999MA1999999092221MD1810371+9999MW1151REMSYN078AAXX  09121 01245 11570 72303 11005 21060 39222 49940 58037 6//// 71571 8707/;
0220012450999992008010918004+62600+009667FM-12+060699999V0202401N005012200019N0200001N1+00041-00751099021ADDAA112000091AY171061AY211061GF104991041011012501001001KA1999M+00191MA1999999091901MD1510141+9999MW1011REMSYN088AAXX  09181 01245 11670 42405 10004 21075 39190 49902 55014 69902 70171 84100 333 10019;EQDQ01  00002PRCP12
0282012450999992008011006004+62600+009667FM-12+060699999V0202301N010010120019N0200001N1+00221-00591098481ADDAA112000091AA224000091AJ100329199999999AY121061AY201061GF105991051011012501001001IA1239KA1120N+00051MA1999999091431MD1510091+9999MW1031REMSYN100AAXX  10061 01245 11670 52310 10022 21059 39143 49848 55009 60002 70320 85100 333 20005 47032 70000;EQDQ01  00002PRCP24Q02  00002PRCP12
0161012450999992008011009004+62600+009667FM-12+060699999V0202101N010010150019N0300001N1+00261-00571098491ADDAY121031AY221031GF107991071081012501999999MA1999999091461MD1010031+9999MW1031REMSYN072AAXX  10091 01245 41680 72110 10026 21057 39146 49849 50003 70322 878//;
0167012450999992008011012004+62600+009667FM-12+060699999V0203001N003012200019N0300001N1+00261-00501098581ADDAY121061AY221061GF105991041081012501001011MA1999999091551MD1010091+9999MW1011REMSYN078AAXX  10121 01245 11680 53003 10026 21050 39155 49858 50009 6//// 70122 84801;
0220012450999992008011018004+62600+009667FM-12+060699999V0202301N003012200019N0200001N1+00181-00701098771ADDAA112000091AY121061AY201061GF102991021011012501001001KA1999M+00371MA1999999091701MD1310081+9999MW1011REMSYN088AAXX  10181 01245 11670 22303 10018 21070 39170 49877 53008 60002 70120 82100 333 10037;EQDQ01  00002PRCP12
0247012450999992008011106004+62600+009667FM-12+060699999V0209999C000010075019N0200001N1-00171-00661098161ADDAA112000021AA224000021AJ100329199999999AY171061AY211061GF107991071051008001999999IA1239KA1120N-00201MA1999999091051MD1510101+9999MW1701REMSYN100AAXX  11061 01245 11570 70000 11017 21066 39105 49816 55010 69902 77071 875// 333 21020 47032 70000;
0161012450999992008011109004+62600+009667FM-12+060699999V0209999C000010120019N0300001N1-00141-00531098491ADDAY171031AY221031GF108991071051012501021999MA1999999091361MD1310311+9999MW1031REMSYN072AAXX  11091 01245 41680 80000 11014 21053 39136 49849 53031 70372 8752/;
0167012450999992008011112004+62600+009667FM-12+060699999V0203201N001012200019N0300001N1-00081-00631098721ADDAY171061AY221061GF105991041051012501001011MA1999999091581MD1310321+9999MW1011REMSYN078AAXX  11121 01245 11680 53201 11008 21063 39158 49872 53032 6//// 70172 84501;
0201012450999992008011118004+62600+009667FM-12+060699999V0202301N003012200019N0300001N1+00121-00751098921ADDAA112000021AY121061AY201061GF101991011011012501001001KA1999M+00191MA1999999091821MD1310101+9999MW1011REMSYN088AAXX  11181 01245 11680 12303 10012 21075 39182 49892 53010 69902 70120 81100 333 10019;
0276012450999992008011206004+62600+009667FM-12+060699999V0209999C000012200019N0300001N1-00151-00791099491ADDAA112000091AA224000021AJ100329199999999AY101061AY201061GA1001+999999999GF100991001001999999001001IA1239KA1120N-00201MA1999999092281MD1210051+9999MW1021REMSYN094AAXX  12061 01245 11980 00000 11015 21079 39228 49949 52005 60002 70200 333 21020 47032 70000;EQDQ01  00002PRCP12
0161012450999992008011209004+62600+009667FM-12+060699999V0202701N001012200019N0300001N1-00101-00741099591ADDAY101031AY201031GF103991021051017501051001MA1999999092381MD1110101+9999MW1031REMSYN072AAXX  12091 01245 41780 32701 11010 21074 39238 49959 51010 70300 82550;
0167012450999992008011212004+62600+009667FM-12+060699999V0209999C000012200019N0300001N1-00321-00861099601ADDAY121061AY201061GF105991041051012501001041MA1999999092351MD1810041+9999MW1031REMSYN078AAXX  12121 01245 11680 50000 11032 21086 39235 49960 58004 6//// 70320 84504;
0220012450999992008011218004+62600+009667FM-12+060699999V0209999C000010120019N0300001N1-00691-00991099621ADDAA112000091AY121061AY221061GF105991051051012501001001KA1999M-00021MA1999999092271MD1710011+9999MW1021REMSYN088AAXX  12181 01245 11680 50000 11069 21099 39227 49962 57001 60002 70222 85500 333 11002;EQDQ01  00002PRCP12
0282012450999992008011306004+62600+009667FM-12+060699999V0202801N001010120019N0300001N1-00121-00361099871ADDAA112000091AA224000091AJ100329199999999AY181061AY221061GF105991051021012501001001IA1239KA1120N-00701MA1999999092651MD1310211+9999MW1021REMSYN100AAXX  13061 01245 11680 52801 11012 21036 39265 49987 53021 69912 70282 85200 333 21070 47032 70001;EQDQ01  00002PRCP24Q02  00002PRCP12
0161012450999992008011309004+62600+009667FM-12+060699999V0202701N001010075019N0200001N1-00201-00271100141ADDAY181031AY221031GF105991051031008001031001MA1999999092871MD1310231+9999MW1851REMSYN072AAXX  13091 01245 41570 52701 11020 21027 39287 40014 53023 78582 85330;
0167012450999992008011312004+62600+009667FM-12+060699999V0202701N001012200019N0300001N1-00061-00481100321ADDAY181061AY211061GF104991031011012501001011MA1999999093071MD1110201+9999MW1011REMSYN078AAXX  13121 01245 11680 42701 11006 21048 39307 40032 51020 6//// 70181 83101;
0201012450999992008011318004+62600+009667FM-12+060699999V0209999C000010150019N0300001N1-00181-00841100341ADDAA112000591AY121061AY201061GF107991071001017501011999KA1999M+00081MA1999999093071MD1810081+9999MW1021REMSYN088AAXX  13181 01245 11780 70000 11018 21084 39307 40034 58008 69942 70220 8701/ 333 10008;
0266012450999992008011406004+62600+009667FM-12+060699999V0201801N001012200019N0300001N1+00331-00441099331ADDAA112000091AA224000591AJ100329199999999AY121061AY201061GF103991031011012501001001IA1239KA1120N-00261MA1999999092261MD1810121+9999MW1011REMSYN100AAXX  14061 01245 11680 31801 10033 21044 39226 49933 58012 60002 70120 83100 333 21026 47032 70004;EQDQ01  00002PRCP12
0161012450999992008011409004+62600+009667FM-12+060699999V0203201N005010300019N0300001N1+00441-00331099401ADDAY121031AY201031GF107991031071012501071999MA1999999092351MD1310091+9999MW1031REMSYN072AAXX  14091 01245 41680 73205 10044 21033 39235 49940 53009 70320 8377/;
0167012450999992008011412004+62600+009667FM-12+060699999V0203201N005010300019N0300001N1+00481-00211099391ADDAY121061AY201061GF108991031071012501071999MA1999999092351MD1810021+9999MW1031REMSYN078AAXX  14121 01245 11680 83205 10048 21021 39235 49939 58002 6//// 70320 8377/;
0220012450999992008011418004+62600+009667FM-12+060699999V0200101N007010120019N0300001N1+00271-00741098891ADDAA112000091AY121061AY201061GF106991061071012501999999KA1999M+00561MA1999999091831MD1610191+9999MW1011REMSYN088AAXX  14181 01245 11680 60107 10027 21074 39183 49889 56019 60002 70120 867// 333 10056;EQDQ01  00002PRCP12
0282012450999992008011506004+62600+009667FM-12+060699999V0200201N010010120019N0300001N1+00301-00441098331ADDAA112000091AA224000091AJ100329199999999AY121061AY221061GF107991061021012501999999IA1239KA1120N+00051MA1999999091321MD1610171+9999MW1031REMSYN100AAXX  15061 01245 11680 70210 10030 21044 39132 49833 56017 60002 70322 862// 333 20005 47032 70000;EQDQ01  00002PRCP24Q02  00002PRCP12
0161012450999992008011509004+62600+009667FM-12+060699999V0201401N003010120019N0300001N1+00361-00361098171ADDAY121031AY221031GF106991061081008001001001MA1999999091181MD1510151+9999MW1011REMSYN072AAXX  15091 01245 41580 61403 10036 21036 39118 49817 55015 70122 86800;
0167012450999992008011512004+62600+009667FM-12+060699999V0202701N005010300019N0300001N1+00431-00321098011ADDAY121061AY221061GF105991041081012501041001MA1999999091061MD1510141+9999MW1011REMSYN078AAXX  15121 01245 11680 52705 10043 21032 39106 49801 55014 6//// 70122 84840;
0220012450999992008011518004+62600+009667FM-12+060699999V0202301N001012200019N0300001N1+00341-00471098151ADDAA112000091AY111061AY201061GF104991041011012501001001KA1999M+00441MA1999999091171MD1310091+9999MW1011REMSYN088AAXX  15181 01245 11680 42301 10034 21047 39117 49815 53009 60002 70110 84100 333 10044;EQDQ01  00002PRCP12
0247012450999992008011606004+62600+009667FM-12+060699999V0209999C000010021019N0150001N1-00061-00231098461ADDAA112000021AA224000021AJ100329199999999AY171061AY211061GF106991061061002501001001IA1239KA1120N-00061MA1999999091361MD1010081+9999MW1701REMSYN100AAXX  16061 01245 11365 60000 11006 21023 39136 49846 50008 69912 77071 86600 333 21006 47032 70001;
0161012450999992008011609004+62600+009667FM-12+060699999V0209999C000010012019N0100001N1-00041-00141098521ADDAY171031AY221031GF108991081061001501999999MA1999999091421MD1010061+9999MW1711REMSYN072AAXX  16091 01245 41260 80000 11004 21014 39142 49852 50006 77172 886//;
0167012450999992008011612004+62600+009667FM-12+060699999V0209999C000010012019N0060001N1-00071-00181098521ADDAY171061AY271061GF108991081061001501999999MA1999999091411MD1810011+9999MW1711REMSYN078AAXX  16121 01245 11256 80000 11007 21018 39141 49852 58001 6//// 77177 886//;
0201012450999992008011618004+62600+009667FM-12+060699999V0203501N001010021019N0100001N1-00181-00291098641ADDAA112007191AY171061AY271061GF108991081061002501999999KA1999M+00071MA1999999091481MD1310101+9999MW1021REMSYN088AAXX  16181 01245 11360 83501 11018 21029 39148 49864 53010 60072 70277 886// 333 10007;
0247012450999992008011706004+62600+009667FM-12+060699999V0203201N001010012019N0060001N1-00331-00441099161ADDAA112004191AA224010791AJ100489199999999AY171061AY221061GF107991071061001501999999IA1239KA1120N-00331MA1999999091931MD1310161+9999MW1711REMSYN100AAXX  17061 01245 11256 73201 11033 21044 39193 49916 53016 60042 77172 876// 333 21033 47048 70107;
0161012450999992008011709004+62600+009667FM-12+060699999V0209999C000010021019N0060001N1-00351-00491099371ADDAY171031AY221031GF107991051071002501021999MA1999999092121MD1210191+9999MW1701REMSYN072AAXX  17091 01245 41356 70000 11035 21049 39212 49937 52019 77072 8572/;
0167012450999992008011712004+62600+009667FM-12+060699999V0209999C000010042019N0100001N1-00301-00451099511ADDAY171061AY221061GF107991051071004501021999MA1999999092271MD1210141+9999MW1711REMSYN078AAXX  17121 01245 11460 70000 11030 21045 39227 49951 52014 6//// 77172 8572/;
0201012450999992008011718004+62600+009667FM-12+060699999V0209999C000010300019N0200001N1-00581-00811099851ADDAA112001091AY171061AY211061GF106991041061002501061001KA1999M-00151MA1999999092511MD1210111+9999MW1011REMSYN088AAXX  17181 01245 11370 60000 11058 21081 39251 49985 52011 60012 70171 84660 333 11015;
0276012450999992008011806004+62600+009667FM-12+060699999V0203301N001012200019N0300001N1-00561-01111100141ADDAA112000091AA224001391AJ100529199999999AY141061AY211061GA1001+999999999GF100991001001999999001001IA1239KA1120N-00931MA1999999092781MD1810041+9999MW1011REMSYN094AAXX  18061 01245 11980 03301 11056 21111 39278 40014 58004 60002 70141 333 21093 47052 70013;EQDQ01  00002PRCP12
0161012450999992008011809004+62600+009667FM-12+060699999V0202301N001012200019N0300001N1-00821-01431100271ADDAY101031AY201031GF103991011001022501031051MA1999999092831MD1010041+9999MW1031REMSYN072AAXX  18091 01245 41880 32301 11082 21143 39283 40027 50004 70300 81035;
0167012450999992008011812004+62600+009667FM-12+060699999V0202101N001010120019N0300001N1-00131-00811100011ADDAY121061AY201061GF105991051041012501001001MA1999999092771MD1810051+9999MW1031REMSYN078AAXX  18121 01245 11680 52101 11013 21081 39277 40001 58005 6//// 70320 85400;
0220012450999992008011818004+62600+009667FM-12+060699999V0201401N005010075019N0200001N1+00081-00631099271ADDAA112000091AY131061AY221061GF107991061011008001011999KA1999M+00161MA1999999092131MD1810311+9999MW1031REMSYN088AAXX  18181 01245 11570 71405 10008 21063 39213 49927 58031 60002 70332 8611/ 333 10016;EQDQ01  00002PRCP12
0266012450999992008011906004+62600+009667FM-12+060699999V0203001N001010150019N0300001N1+00181-00451097232ADDAA112000091AA224000391AJ100469199999999AY181061AY221061GF106991061001017501011001IA1239KA1120N-00061MA1999999090271MD1610271+9999MW1021REMSYN100AAXX  19061 01245 11780 63001 10018 21045 39027 49723 56027 69922 70282 86010 333 21006 47046 70002;EQDQ01  00002PRCP12
0161012450999992008011909004+62600+009667FM-12+060699999V0203001N005010021019N0060001N1+00141-00221097551ADDAY171031AY221031GF108991081051002501999999MA1999999090561MD1310301+9999MW1731REMSYN072AAXX  19091 01245 41356 83005 10014 21022 39056 49755 53030 77372 885//;
0167012450999992008011912004+62600+009667FM-12+060699999V0203201N012010021019N0060001N1+00001-00301098111ADDAY181061AY231061GF108991081031002501999999MA1999999091051MD1310501+9999MW1851REMSYN078AAXX  19121 01245 11356 83212 10000 21030 39105 49811 53050 6//// 78583 883//;
0220012450999992008011918004+62600+009667FM-12+060699999V0202701N005010075019N0200001N1-00151-00461099002ADDAA112000591AY181061AY231061GF106991061051008001999999KA1999M+00001MA1999999091821MD1310281+9999MW1011REMSYN088AAXX  19181 01245 11570 62705 11015 21046 39182 49900 53028 69942 70183 865// 333 10000;EQDQ01+099003APOSLP
0247012450999992008012006004+62600+009667FM-12+060699999V0203201N001010075019N0200001N1-00381-00611099901ADDAA112001091AA224001591AJ100499199999999AY181061AY221061GF108991081031008001999999IA1239KA1120N-00501MA1999999092611MD1810041+9999MW1031REMSYN100AAXX  20061 01245 11570 83201 11038 21061 39261 49990 58004 60012 70382 883// 333 21050 47049 70015;
0161012450999992008012009004+62600+009667FM-12+060699999V0203501N001010042019N0200001N1-00301-00591099781ADDAY121031AY221031GF107991071071004501001001MA1999999092521MD1810091+9999MW1011REMSYN072AAXX  20091 01245 41470 73501 11030 21059 39252 49978 58009 70122 87700;
0167012450999992008012012004+62600+009667FM-12+060699999V0209999C000010021019N0060001N1-00121-00681099601ADDAY171061AY221061GF108991081051002501999999MA1999999092401MD1710121+9999MW1711REMSYN078AAXX  20121 01245 11356 80000 11012 21068 39240 49960 57012 6//// 77172 885//;
0201012450999992008012018004+62600+009667FM-12+060699999V0203201N001012200019N0300001N1-00191-00581099221ADDAA112000391AY171061AY211061GF103991031011012501001001KA1999M-00021MA1999999092021MD1610111+9999MW1011REMSYN088AAXX  20181 01245 11680 33201 11019 21058 39202 49922 56011 69932 70171 83100 333 11002;
0266012450999992008012106004+62600+009667FM-12+060699999V0209999C000012200019N0300001N1-00981-01201099611ADDAA112000091AA224000391AJ100489199999999AY101061AY201061GF103991011051012501031001IA1239KA1120N-00981MA1999999092171MD1310101+9999MW1031REMSYN100AAXX  21061 01245 11680 30000 11098 21120 39217 49961 53010 60002 70300 81530 333 21098 47048 70003;EQDQ01  00002PRCP12
0161012450999992008012109004+62600+009667FM-12+060699999V0209999C000010120019N0300001N1-00911-01131099791ADDAY121031AY201031GF107991071051012501999999MA1999999092371MD1310191+9999MW1031REMSYN072AAXX  21091 01245 41680 70000 11091 21113 39237 49979 53019 70320 875//;
0167012450999992008012112004+62600+009667FM-12+060699999V0209999C000010120019N0300001N1-00801-01031100001ADDAY171061AY211061GF106991061051012501001001MA1999999092581MD1210201+9999MW1011REMSYN078AAXX  21121 01245 11680 60000 11080 21103 39258 40000 52020 6//// 70171 86500;
0220012450999992008012118004+62600+009667FM-12+060699999V0209999C000010120019N0300001N1-00751-01001100341ADDAA112000091AY121061AY221061GF105991051051012501001001KA1999M-00481MA1999999092921MD1310201+9999MW1011REMSYN088AAXX  21181 01245 11680 50000 11075 21100 39292 40034 53020 69912 70122 85500 333 11048;EQDQ01  00002PRCP12
0247012450999992008012206004+62600+009667FM-12+060699999V0209999C000010120019N0300001N1-00541-00861101001ADDAA112000021AA224000021AJ100489199999999AY181061AY221061GF105991051011012501001001IA1239KA1120N-00721MA1999999093581MD1310191+9999MW1851REMSYN100AAXX  22061 01245 11680 50000 11054 21086 39358 40100 53019 69902 78582 85100 333 21072 47048 70001;
0161012450999992008012209004+62600+009667FM-12+060699999V0209999C000010021019N0200001N1-00531-00831101261ADDAY181031AY271031GF108991071051002501021999MA1999999093821MD1310241+9999MW1701REMSYN072AAXX  22091 01245 41370 80000 11053 21083 39382 40126 53024 77087 8752/;
0167012450999992008012212004+62600+009667FM-12+060699999V0209999C000010300019N0200001N1-00511-00671101501ADDAY181061AY271061GF105991041051008001021001MA1999999094061MD1210221+9999MW1701REMSYN078AAXX  22121 01245 11570 50000 11051 21067 39406 40150 52022 6//// 77087 84520;
0201012450999992008012218004+62600+009667FM-12+060699999V0209999C000012200019N0300001N1-00681-00981101851ADDAA112000021AY171061AY211061GF102991001001999999001011KA1999M-00411MA1999999094331MD1210081+9999MW1011REMSYN088AAXX  22181 01245 11980 20000 11068 21098 39433 40185 52008 69912 70171 80001 333 11041;
0266012450999992008012306004+62600+009667FM-12+060699999V0201201N001010042019N0100001N1-00261-00681101251ADDAA112000091AA224000391AJ100469199999999AY171061AY211061GF107991071051004501999999IA1239KA1120N-00751MA1999999093881MD1810121+9999MW1011REMSYN100AAXX  23061 01245 11460 71201 11026 21068 39388 40125 58012 69912 70171 875// 333 21075 47046 70002;EQDQ01  00002PRCP12
0161012450999992008012309004+62600+009667FM-12+060699999V0203301N001010300019N0300001N1-00101-00761101021ADDAY121031AY221031GF108991041051012501021999MA1999999093721MD1610211+9999MW1031REMSYN072AAXX  23091 01245 41680 83301 11010 21076 39372 40102 56021 70322 8452/;
0167012450999992008012312004+62600+009667FM-12+060699999V0203301N003010300019N0300001N1-00051-00861100791ADDAY121061AY221061GF108991041051012501021999MA1999999093521MD1810201+9999MW1021REMSYN078AAXX  23121 01245 11680 83303 11005 21086 39352 40079 58020 6//// 70222 8452/;
0220012450999992008012318004+62600+009667FM-12+060699999V0202301N001010150019N0300001N1+00061-00651100351ADDAA112000091AY121061AY221061GF106991061001017501021999KA1999M+00111MA1999999093131MD1810241+9999MW1011REMSYN088AAXX  23181 01245 11780 62301 10006 21065 39313 40035 58024 60002 70122 8602/ 333 10011;EQDQ01  00002PRCP12
0247012450999992008012406004+62600+009667FM-12+060699999V0209999C000010075019N0300001N1-00181-00321099041ADDAA112003092AA224002892AJ100489199999999AY181061AY221061GF105991051011008001001001IA1239KA1120N-00201MA1999999091861MD1810391+9999MW1011REMSYN100AAXX  24061 01245 11580 50000 11018 21032 39186 49904 58039 60032 70182 85100 333 21020 47048 70027;
0161012450999992008012409004+62600+009667FM-12+060699999V0202701N007010120019N0200001N1+00221-00391098601ADDAY181031AY221031GF106991061081008001001001MA1999999091551MD1610321+9999MW1031REMSYN072AAXX  24091 01245 41570 62707 10022 21039 39155 49860 56032 70382 86800;
0167012450999992008012412004+62600+009667FM-12+060699999V0202701N010012200019N0300001N1+00151-00541098851ADDAY181061AY231061GF104991031081012501041001MA1999999091771MD1310231+9999MW1381REMSYN078AAXX  24121 01245 11680 42710 10015 21054 39177 49885 53023 6//// 73883 83840;
0201012450999992008012418004+62600+009667FM-12+060699999V0202401N001010075019N0200001N1-00171-00341099351ADDAA112000021AY181061AY231061GF105991051021008001001001KA1999M+00341MA1999999092151MD1310141+9999MW1851REMSYN088AAXX  24181 01245 11570 52401 11017 21034 39215 49935 53014 69912 78583 85200 333 10034;
0266012450999992008012506004+62600+009667FM-12+060699999V0202101N003010075019N0200001N1-00171-00751098841ADDAA112007191AA224007491AJ100609199999999AY181061AY221061GF106991061011008001001001IA1239KA1120N-00481MA1999999091671MD1810782+9999MW1011REMSYN100AAXX  25061 01245 11570 62103 11017 21075 39167 49884 58078 60072 70182 86100 333 21048 47060 70074;EQDQ01+000782APC3  
0161012450999992008012509004+62600+009667FM-12+060699999V0202301N005012200019N0300001N1-00041-00681098371ADDAY121031AY221031GF105991041001008001021091MA1999999091271MD1810401+9999MW1011REMSYN072AAXX  25091 01245 41580 52305 11004 21068 39127 49837 58040 70122 84029;
0167012450999992008012512004+62600+009667FM-12+060699999V0202301N005010012019N0050001N1-00101-00201098401ADDAY181061AY221061GF107991071031001501999999MA1999999091281MD1510061+9999MW1861REMSYN078AAXX  25121 01245 11250 72305 11010 21020 39128 49840 55006 6//// 78682 873//;
0201012450999992008012518004+62600+009667FM-12+060699999V0202401N005010006019N0050001N1-00081-00181099111ADDAA112005191AY181061AY221061GF107991071031000751999999KA1999M+00121MA1999999091951MD1110471+9999MW1861REMSYN088AAXX  25181 01245 11150 72405 11008 21018 39195 49911 51047 60052 78682 873// 333 10012;
0247012450999992008012606004+62600+009667FM-12+060699999V0202701N001010012019N0060001N1-00321-00431099611ADDAA112009991AA224014291AJ100799199999999AY181061AY281061GF107991071021001501999999IA1239KA1120N-00331MA1999999092361MD1810061+9999MW1851REMSYN100AAXX  26061 01245 11256 72701 11032 21043 39236 49961 58006 60102 78588 872// 333 21033 47079 70141;
0161012450999992008012609004+62600+009667FM-12+060699999V0203201N001010012019N0050001N1-00311-00461099411ADDAY181031AY281031GF108991081021001501999999MA1999999092171MD1610191+9999MW1851REMSYN072AAXX  26091 01245 41250 83201 11031 21046 39217 49941 56019 78588 882//;
0167012450999992008012612004+62600+009667FM-12+060699999V0209999C000010012019N0050001N1-00271-00421099281ADDAY181061AY281061GF108991081021001501999999MA1999999092061MD1510121+9999MW1851REMSYN078AAXX  26121 01245 11250 80000 11027 21042 39206 49928 55012 6//// 78588 882//;
0201012450999992008012618004+62600+009667FM-12+060699999V0202301N001010042019N0100001N1-00301-00531099671ADDAA112013091AY181061AY221061GF107991071021004501999999KA1999M-00041MA1999999092421MD1110251+9999MW1851REMSYN088AAXX  26181 01245 11460 72301 11030 21053 39242 49967 51025 60132 78582 872// 333 11004;
0247012450999992008012706004+62600+009667FM-12+060699999V0209999C000010021019N0600001N1-00491-00651100491ADDAA112011991AA224024191AJ101049199999999AY181061AY281061GF107991071021002501999999IA1239KA1120N-00501MA1999999093121MD1310321+9999MW1851REMSYN100AAXX  27061 01245 11386 70000 11049 21065 39312 40049 53032 60122 78588 872// 333 21050 47104 70241;
0161012450999992008012709004+62600+009667FM-12+060699999V0203201N001010021019N0100001N1-00421-00741100931ADDAY181031AY281031GF107991071021002501001001MA1999999093551MD1210361+9999MW1851REMSYN072AAXX  27091 01245 41360 73201 11042 21074 39355 40093 52036 78588 87200;
0167012450999992008012712004+62600+009667FM-12+060699999V0203001N001010006019N0050001N1-00411-00531101281ADDAY181061AY221061GF108991081031000751999999MA1999999093871MD1310331+9999MW1861REMSYN078AAXX  27121 01245 11150 83001 11041 21053 39387 40128 53033 6//// 78682 883//;
0201012450999992008012718004+62600+009667FM-12+060699999V0203201N001012200019N0200001N1-00341-00661101781ADDAA112004191AY181061AY211061GF104991041011012501001001KA1999M-00241MA1999999094361MD1210241+9999MW1011REMSYN088AAXX  27181 01245 11670 43201 11034 21066 39436 40178 52024 60042 70181 84100 333 11024;
0266012450999992008012806004+62600+009667FM-12+060699999V0203601N001010120019N0200001N1+00031-00161101211ADDAA112000091AA224004391AJ101019199999999AY121061AY201061GF106991061011012501001001IA1239KA1120N-00461MA1999999093921MD1710101+9999MW1031REMSYN100AAXX  28061 01245 11670 63601 10003 21016 39392 40121 57010 60002 70320 86100 333 21046 47101 70042;EQDQ01  00002PRCP12
0161012450999992008012809004+62600+009667FM-12+060699999V0202301N005010120019N0300001N1+00301-00151101131ADDAY121031AY221031GF105991051051012501001001MA1999999093921MD1410001+9999MW1011REMSYN072AAXX  28091 01245 41680 52305 10030 21015 39392 40113 54001 70122 85500;
0167012450999992008012812004+62600+009667FM-12+060699999V0202401N001010750019N0300001N1+00341-00111101061ADDAY161061AY221061GF105991041051012501001091MA1999999093871MD1810051+9999MW1011REMSYN078AAXX  28121 01245 11680 52401 10034 21011 39387 40106 58005 6//// 70162 84509;
0220012450999992008012818004+62600+009667FM-12+060699999V0209999C000010120019N0200001N1+00511-00271100731ADDAA112000091AY121061AY221061GF105991051051012501001001KA1999M+00621MA1999999093601MD1810121+9999MW1021REMSYN088AAXX  28181 01245 11670 50000 10051 21027 39360 40073 58012 69902 70222 85500 333 10062;EQDQ01  00002PRCP12
0282012450999992008012906004+62600+009667FM-12+060699999V0201201N001010150019N0200001N1+00211-00061100121ADDAA112000091AA224000091AJ100859199999999AY121061AY221061GF106991061001017501011001IA1239KA1120N+00051MA1999999092961MD1810191+9999MW1021REMSYN100AAXX  29061 01245 11770 61201 10021 21006 39296 40012 58019 60002 70222 86010 333 20005 47085 70000;EQDQ01  00002PRCP24Q02  00002PRCP12
0161012450999992008012909004+62600+009667FM-12+060699999V0203001N003012200019N0300001N1+00431-00301100031ADDAY121031AY211031GF106991041011012501001041MA1999999092921MD1510031+9999MW1031REMSYN072AAXX  29091 01245 41680 63003 10043 21030 39292 40003 55003 70321 84104;
0167012450999992008012912004+62600+009667FM-12+060699999V0203201N005010021019N0100001N1-00021-00331100881ADDAY181061AY221061GF106991061021002501001001MA1999999093611MD1310671+9999MW1851REMSYN078AAXX  29121 01245 11360 63205 11002 21033 39361 40088 53067 6//// 78582 86200;
0201012450999992008012918004+62600+009667FM-12+060699999V0203201N001010120019N0200001N1-00221-00561101201ADDAA112000391AY181061AY221061GF105991051021012501001001KA1999M+00551MA1999999093861MD1010031+9999MW1011REMSYN088AAXX  29181 01245 11670 53201 11022 21056 39386 40120 50003 69932 70182 85200 333 10055;
0266012450999992008013006004+62600+009667FM-12+060699999V0202301N001012200019N0300001N1-00391-01161100701ADDAA112000091AA224000391AJ100839199999999AY121061AY201061GF103991001001999999001081IA1239KA1120N-00561MA1999999093351MD1710141+9999MW1011REMSYN100AAXX  30061 01245 11980 32301 11039 21116 39335 40070 57014 60002 70120 80008 333 21056 47083 70003;EQDQ01  00002PRCP12
0171012450999992008013009004+62600+009667FM-12+060699999V0202301N001010300019N0300001N1-00321-01141100531ADDAY121031AY201031GF105991031021012501061001MA1999999093211MD1610131+9999MW1031REMSYN082AAXX  30091 01245 41680 52301 11032 21114 39321 40053 56013 70320 83260 333 4////;
0167012450999992008013012004+62600+009667FM-12+060699999V0203201N001012200019N0300001N1-00341-01091100461ADDAY121061AY201061GF104991041041012501001001MA1999999093131MD1710081+9999MW1011REMSYN078AAXX  30121 01245 11680 43201 11034 21109 39313 40046 57008 6//// 70120 84400;
0220012450999992008013018004+62600+009667FM-12+060699999V0203201N001012200019N0300001N1-00481-00911100521ADDAA112000091AY101061AY201061GF101991011011012501001001KA1999M-00071MA1999999093161MD1310081+9999MW1011REMSYN088AAXX  30181 01245 11680 13201 11048 21091 39316 40052 53008 60002 70100 81100 333 11007;EQDQ01  00002PRCP12
0282012450999992008013106004+62600+009667FM-12+060699999V0202401N001010120019N0300001N1-00221-01001099511ADDAA112000091AA224000091AJ100819199999999AY121061AY201061GF106991061051012501001001IA1239KA1120N-00691MA1999999092281MD1810361+9999MW1031REMSYN100AAXX  31061 01245 11680 62401 11022 21100 39228 49951 58036 60002 70320 86500 333 21069 47081 70000;EQDQ01  00002PRCP24Q02  00002PRCP12
0161012450999992008013109004+62600+009667FM-12+060699999V0202401N005010300019N0200001N1-00151-00791099091ADDAY121031AY221031GF107991041051008001021999MA1999999091921MD1810371+9999MW1031REMSYN072AAXX  31091 01245 41570 72405 11015 21079 39192 49909 58037 70322 8452/;
0167012450999992008013112004+62600+009667FM-12+060699999V0200501N005010075019N0200001N1-00041-00641098691ADDAY121061AY221061GF107991051051008001021999MA1999999091571MD1810361+9999MW1021REMSYN078AAXX  31121 01245 11570 70505 11004 21064 39157 49869 58036 6//// 70222 8552/;
0268012450999992008013118004+62600+009667FM-12+060699999V0201401N010010075019N0200001N1+00101-00521097332ADDAA112000091AY171061AY231061GF105991051021008001001001KA1999M+00351MA1999999090352MD1610682+9999MW1011REMSYN088AAXX  31181 01245 11570 51410 10010 21052 39035 49733 56068 69902 70173 85200 333 10035;EQDQ01+090353APOSP Q02+097333APOSLPQ03+000682APC3  Q04  00002PRCP12
0282012450999992008020106004+62600+009667FM-12+060699999V0202701N005012200019N0300001N1-00111-00731096691ADDAA112000091AA224000091AJ100749199999999AY131061AY211061GF104991041011012501001001IA1239KA1120N-00111MA1999999089701MD1510011+9999MW1011REMSYN100AAXX  01061 01245 11680 42705 11011 21073 38970 49669 55001 60002 70131 84100 333 21011 47074 70000;EQDQ01  00002PRCP24Q02  00002PRCP12
0161012450999992008020109004+62600+009667FM-12+060699999V0202301N007010300019N0300001N1-00131-00811096771ADDAY121031AY201031GF106991011011012501011001MA1999999089771MD1310061+9999MW1031REMSYN072AAXX  01091 01245 41680 62307 11013 21081 38977 49677 53006 70320 81110;
0177012450999992008020112004+62600+009667FM-12+060699999V0202301N003010300019N0300001N1-00081-00831096811ADDAY121061AY201061GF107991031011012501011001MA1999999089821MD1310051+9999MW1031REMSYN088AAXX  01121 01245 11680 72303 11008 21083 38982 49681 53005 6//// 70320 83110 333 4////;
0226012450999992008020118004+62600+009667FM-12+060699999V0202301N001012200019N0300001N1-00231-00601097231ADDAA112000091AY181061AY211061GF104991041011012501001001KA1120M+00041MA1999999090171MD1210181+9999MW1011REMSYN094AAXX  01181 01245 11680 42301 11023 21060 39017 49723 52018 69912 70181 84100 333 10004 4////;EQDQ01  00002PRCP12
0224012450999992008020206004+62600+009667FM-12+060699999V0203001N005010042019N0100001N1-00621-00931098481ADDAA112002092AA224001892AY181061AY221061GF106991061021004501001001KA1120N-00621MA1999999091221MD1310281+9999MW1851REMSYN100AAXX  02061 01245 11460 63005 11062 21093 39122 49848 53028 60022 78582 86200 333 21062 4//// 70019;
0171012450999992008020209004+62600+009667FM-12+060699999V0203201N005010042019N0100001N1-00751-01051098861ADDAY181031AY221031GF107991061021004501041999MA1999999091551MD1310301+9999MW1851REMSYN082AAXX  02091 01245 41460 73205 11075 21105 39155 49886 53030 78582 8624/ 333 4////;
0177012450999992008020212004+62600+009667FM-12+060699999V0203201N001012200019N0300001N1-00881-01361099091ADDAY181061AY211061GF103991021011012501001011MA1999999091721MD1210201+9999MW1011REMSYN088AAXX  02121 01245 11680 33201 11088 21136 39172 49909 52020 6//// 70181 82101 333 4////;
0207012450999992008020218004+62600+009667FM-12+060699999V0203201N001012200019N0300001N1-01231-01951099651ADDAA112000021AY101061AY201061GF102991001001999999001051KA1120M-00461MA1999999092151MD1210231+9999MW1031REMSYN094AAXX  02181 01245 11980 23201 11123 21195 39215 49965 52023 69912 70300 80005 333 11046 4////;
0243012450999992008020306004+62600+009667FM-12+060699999V0203201N001012200019N0300001N1-00811-01541099881ADDAA112000091AA224000021AY101061AY201061GF102991021011012501001001KA1120N-01421MA1999999092471MD1110091+9999MW1031REMSYN100AAXX  03061 01245 11680 23201 11081 21154 39247 49988 51009 60002 70300 82100 333 21142 4//// 70001;EQDQ01  00002PRCP12
0171012450999992008020309004+62600+009667FM-12+060699999V0203301N001019999999N0300001N1-00721-01471099901ADDAY121031AY211031GF108991081999012501011999MA1999999092521MD1810031+9999MW1031REMSYN082AAXX  03091 01245 41680 83301 11072 21147 39252 49990 58003 70321 88/1/ 333 4////;
0177012450999992008020312004+62600+009667FM-12+060699999V0202701N003010042019N0100001N1-00571-01211099931ADDAY171061AY211061GF108991081001004501021999MA1999999092581MD1310061+9999MW1701REMSYN088AAXX  03121 01245 11460 82703 11057 21121 39258 49993 53006 6//// 77071 8802/ 333 4////;
0207012450999992008020318004+62600+009667FM-12+060699999V0203601N003010042019N0100001N1-00501-00801099871ADDAA112001091AY171061AY221061GF107991071001004501021999KA1120M-00461MA1999999092551MD1710031+9999MW1711REMSYN094AAXX  03181 01245 11460 73603 11050 21080 39255 49987 57003 69992 77172 8702/ 333 11046 4////;
0224012450999992008020406004+62600+009667FM-12+060699999V0200901N005010150019N0300001N1+00051-00841100071ADDAA112000021AA224001091AY171061AY221061GF107991071001017501011999KA1120N-00591MA1999999092871MD1010031+9999MW1031REMSYN100AAXX  04061 01245 11780 70905 10005 21084 39287 40007 50003 69902 70372 8701/ 333 21059 4//// 70009;
0171012450999992008020409004+62600+009667FM-12+060699999V0201501N005010150019N0300001N1+00111-01031100051ADDAY121031AY221031GF107991071001017501071999MA1999999092871MD1010001+9999MW1021REMSYN082AAXX  04091 01245 41780 71505 10011 21103 39287 40005 50000 70222 8707/ 333 4////;
0177012450999992008020412004+62600+009667FM-12+060699999V0202401N005010150019N0300001N1-00031-00991100151ADDAY121061AY221061GF107991071001017501071999MA1999999092921MD1110081+9999MW1021REMSYN088AAXX  04121 01245 11780 72405 11003 21099 39292 40015 51008 6//// 70222 8707/ 333 4////;
0226012450999992008020418004+62600+009667FM-12+060699999V0201601N007010150019N0300001N1-00081-00761100121ADDAA112000091AY121061AY221061GF107991071001017501071999KA1120M+00301MA1999999092881MD1510041+9999MW1021REMSYN094AAXX  04181 01245 11780 71607 11008 21076 39288 40012 55004 60002 70222 8707/ 333 10030 4////;EQDQ01  00002PRCP12
0282012450999992008020506004+62600+009667FM-12+060699999V0203201N003012200019N0300001N1-00041-00721099971ADDAA112000091AA224000091AJ100739199999999AY131061AY211061GF103991031011012501001001IA1239KA1120N-00141MA1999999092761MD1310071+9999MW1031REMSYN100AAXX  05061 01245 11680 33203 11004 21072 39276 49997 53007 60002 70331 83100 333 21014 47073 70000;EQDQ01  00002PRCP24Q02  00002PRCP12
0171012450999992008020509004+62600+009667FM-12+060699999V0203201N003010750019N0300001N1-00121-00781100071ADDAY121031AY201031GF105991021021012501001091MA1999999092821MD1310081+9999MW1031REMSYN082AAXX  05091 01245 41680 53203 11012 21078 39282 40007 53008 70320 82209 333 4////;
0177012450999992008020512004+62600+009667FM-12+060699999V0202301N003012200019N0300001N1+00111-00761100051ADDAY121061AY211061GF102991021011012501001001MA1999999092871MD1010021+9999MW1011REMSYN088AAXX  05121 01245 11680 22303 10011 21076 39287 40005 50002 6//// 70121 82100 333 4////;
0226012450999992008020518004+62600+009667FM-12+060699999V0202301N003012200019N0300001N1+00041-00621100151ADDAA112000091AY101061AY201061GF103991031011012501001001KA1120M+00161MA1999999092951MD1010031+9999MW1031REMSYN094AAXX  05181 01245 11680 32303 10004 21062 39295 40015 50003 60002 70300 83100 333 10016 4////;EQDQ01  00002PRCP12
0282012450999992008020606004+62600+009667FM-12+060699999V0201401N007010120019N0300001N1+00141-00611099691ADDAA112000091AA224000091AJ100719199999999AY121061AY201061GF105991051011012501001001IA1239KA1120N+00001MA1999999092551MD1810101+9999MW1031REMSYN100AAXX  06061 01245 11680 51407 10014 21061 39255 49969 58010 60002 70320 85100 333 20000 47071 70000;EQDQ01  00002PRCP24Q02  00002PRCP12
0161012450999992008020609004+62600+009667FM-12+060699999V0202301N007010120019N0300001N1+00101-00561099741ADDAY121031AY221031GF106991061011012501001001MA1999999092571MD1310051+9999MW1031REMSYN072AAXX  06091 01245 41680 62307 10010 21056 39257 49974 53005 70322 86100;
0167012450999992008020612004+62600+009667FM-12+060699999V0200301N001010120019N0300001N1+00121-00521099881ADDAY121061AY221061GF107991051041012501021001MA1999999092721MD1110161+9999MW1031REMSYN078AAXX  06121 01245 11680 70301 10012 21052 39272 49988 51016 6//// 70322 85420;
0201012450999992008020618004+62600+009667FM-12+060699999V0203201N001010042019N0150001N1-00031-00171100581ADDAA112001091AY171061AY221061GF107991071051004501999999KA1999M+00291MA1999999093321MD1310381+9999MW1011REMSYN088AAXX  06181 01245 11465 73201 11003 21017 39332 40058 53038 60012 70172 875// 333 10029;
0228012450999992008020706004+62600+009667FM-12+060699999V0203601N001012200019N0300001N1-00411-00711102301ADDAA112002091AA224003391AY171061AY211061GA1001+999999999GF100991001001999999001001KA1120N-00411MA1999999094821MD1310191+9999MW1011REMSYN088AAXX  07061 01245 11980 03601 11041 21071 39482 40230 53019 60022 70171 333 21041 70033;
0171012450999992008020709004+62600+009667FM-12+060699999V0202701N001012200019N0300001N1-00391-01141102341ADDAY101031AY201031GF103991001001999999001051MA1999999094871MD1010051+9999MW1031REMSYN082AAXX  07091 01245 41980 32701 11039 21114 39487 40234 50005 70300 80005 333 4////;
0177012450999992008020712004+62600+009667FM-12+060699999V0203601N003010210019N0300001N1-00041-01191102071ADDAY121061AY201061GF107991071001022501011999MA1999999094711MD1810161+9999MW1031REMSYN088AAXX  07121 01245 11880 73603 11004 21119 39471 40207 58016 6//// 70320 8701/ 333 4////;
0226012450999992008020718004+62600+009667FM-12+060699999V0201501N007012200019N0300001N1+00081-00761101651ADDAA112000091AY131061AY211061GF103991031011012501001001KA1120M+00161MA1999999094351MD1810081+9999MW1011REMSYN094AAXX  07181 01245 11680 31507 10008 21076 39435 40165 58008 60002 70131 83100 333 10016 4////;EQDQ01  00002PRCP12
0282012450999992008020806004+62600+009667FM-12+060699999V0200901N001012200019N0300001N1-00091-00601102481ADDAA112000091AA224000091AJ100709199999999AY101061AY201061GF101991011011012501001001IA1239KA1120N-00481MA1999999095071MD1110111+9999MW1021REMSYN100AAXX  08061 01245 11680 10901 11009 21060 39507 40248 51011 60002 70200 81100 333 21048 47070 70000;EQDQ01  00002PRCP24Q02  00002PRCP12
0171012450999992008020809004+62600+009667FM-12+060699999V0203201N005010300019N0300001N1+00281-00581102281ADDAY121031AY201031GF106991031051012501031091MA1999999094981MD1810081+9999MW1011REMSYN082AAXX  08091 01245 41680 63205 10028 21058 39498 40228 58008 70120 83539 333 4////;
0177012450999992008020812004+62600+009667FM-12+060699999V0203201N005010150019N0300001N1+00391-00431102071ADDAY121061AY201061GF106991061001017501071001MA1999999094821MD1810181+9999MW1011REMSYN088AAXX  08121 01245 11780 63205 10039 21043 39482 40207 58018 6//// 70120 86070 333 4////;
0226012450999992008020818004+62600+009667FM-12+060699999V0202101N007010120019N0300001N1+00471-00191101781ADDAA112000091AY121061AY221061GF105991051041012501001001KA1120M+00581MA1999999094571MD1810121+9999MW1011REMSYN094AAXX  08181 01245 11680 52107 10047 21019 39457 40178 58012 60002 70122 85400 333 10058 4////;EQDQ01  00002PRCP12
0282012450999992008020906004+62600+009667FM-12+060699999V0202601N001010120019N0300001N1+00431-00031102021ADDAA112000091AA224000091AJ100619199999999AY161061AY221061GF105991051031012501001001IA1239KA1120N+00421MA1999999094771MD1310211+9999MW1021REMSYN100AAXX  09061 01245 11680 52601 10043 21003 39477 40202 53021 69912 70262 85300 333 20042 47061 70001;EQDQ01  00002PRCP24Q02  00002PRCP12
0171012450999992008020909004+62600+009667FM-12+060699999V0201801N001012200019N0300001N1+00251-00111102321ADDAY121031AY201031GF103991031011012501001001MA1999999095021MD1310241+9999MW1011REMSYN082AAXX  09091 01245 41680 31801 10025 21011 39502 40232 53024 70120 83100 333 4////;
0226012450999992008020918004+62600+009667FM-12+060699999V0209999C000012200019N0300001N1+00401-00521102481ADDAA112000091AY101061AY201061GF101991001001999999001051KA1120M+00691MA1999999095201MD1410001+9999MW1021REMSYN094AAXX  09181 01245 11980 10000 10040 21052 39520 40248 54001 60002 70200 80005 333 10069 4////;EQDQ01  00002PRCP12
0247012450999992008021006004+62600+009667FM-12+060699999V0203201N001010075019N0200001N1+00031-00241102851ADDAA112000021AA224000021AJ100609199999999AY181061AY221061GF108991081031008001999999IA1239KA1120N-00011MA1999999095451MD1310171+9999MW1801REMSYN100AAXX  10061 01245 11570 83201 10003 21024 39545 40285 53017 69902 78082 883// 333 21001 47060 70000;
0171012450999992008021009004+62600+009667FM-12+060699999V0200901N001010042019N0200001N1+00011-00101103161ADDAY181031AY221031GF107991071031004501001001MA1999999095721MD1110281+9999MW1011REMSYN082AAXX  10091 01245 41470 70901 10001 21010 39572 40316 51028 70182 87300 333 4////;
0177012450999992008021012004+62600+009667FM-12+060699999V0200901N001010042019N0200001N1+00181-00011103311ADDAY121061AY221061GF106991061031004501001001MA1999999095921MD1210191+9999MW1011REMSYN088AAXX  10121 01245 11470 60901 10018 21001 39592 40331 52019 6//// 70122 86300 333 4////;
0207012450999992008021018004+62600+009667FM-12+060699999V0203201N001012200019N0300001N1-00131-00471103701ADDAA112000891AY121061AY201061GF101991011011012501001001KA1120M+00371MA1999999096201MD1210131+9999MW1011REMSYN094AAXX  10181 01245 11680 13201 11013 21047 39620 40370 52013 69982 70120 81100 333 10037 4////;
0266012450999992008021106004+62600+009667FM-12+060699999V0203201N001012200019N0300001N1-00871-01211103881ADDAA112000091AA224000891AJ100609199999999AY101061AY201061GF101991011011012501001001IA1239KA1120N-00941MA1999999096171MD1810071+9999MW1021REMSYN100AAXX  11061 01245 11680 13201 11087 21121 39617 40388 58007 60002 70200 81100 333 21094 47060 70008;EQDQ01  00002PRCP12
0171012450999992008021109004+62600+009667FM-12+060699999V0209999C000012200019N0300001N1-00891-01201103891ADDAY101031AY201031GF103991001001999999001011MA1999999096171MD1410001+9999MW1031REMSYN082AAXX  11091 01245 41980 30000 11089 21120 39617 40389 54000 70300 80001 333 4////;
0177012450999992008021112004+62600+009667FM-12+060699999V0209999C000012200019N0300001N1-00381-00951103711ADDAY101061AY201061GF102991001001999999001011MA1999999096131MD1710031+9999MW1011REMSYN088AAXX  11121 01245 11980 20000 11038 21095 39613 40371 57003 6//// 70100 80001 333 4////;
0226012450999992008021118004+62600+009667FM-12+060699999V0203601N001012200019N0300001N1-00101-01161103461ADDAA112000091AY101061AY201061GF103991031001022501031001KA1120M-00061MA1999999095971MD1710071+9999MW1031REMSYN094AAXX  11181 01245 11880 33601 11010 21116 39597 40346 57007 60002 70300 83030 333 11006 4////;EQDQ01  00002PRCP12
0282012450999992008021206004+62600+009667FM-12+060699999V0203201N001012200019N0300001N1+00141-01071102981ADDAA112000091AA224000091AJ100609199999999AY101061AY201061GF101991011011012501001001IA1239KA1120N-00621MA1999999095601MD1710111+9999MW1011REMSYN100AAXX  12061 01245 11680 13201 10014 21107 39560 40298 57011 60002 70100 81100 333 21062 47060 70000;EQDQ01  00002PRCP24Q02  00002PRCP12
0171012450999992008021209004+62600+009667FM-12+060699999V0203301N001012200019N0300001N1+00481-00761102791ADDAY101031AY201031GF103991031001022501031001MA1999999095511MD1810091+9999MW1031REMSYN082AAXX  12091 01245 41880 33301 10048 21076 39551 40279 58009 70300 83030 333 4////;
0177012450999992008021212004+62600+009667FM-12+060699999V0202701N001010210019N0300001N1+00691-00711102581ADDAY121061AY201061GF106991061001022501071001MA1999999095371MD1710131+9999MW1031REMSYN088AAXX  12121 01245 11880 62701 10069 21071 39537 40258 57013 6//// 70320 86070 333 4////;
0226012450999992008021218004+62600+009667FM-12+060699999V0203201N001010210019N0300001N1-00071-00561102781ADDAA112000091AY121061AY221061GF106991061001022501071001KA1120M+00851MA1999999095361MD1310061+9999MW1021REMSYN094AAXX  12181 01245 11880 63201 11007 21056 39536 40278 53006 60002 70222 86070 333 10085 4////;EQDQ01  00002PRCP12
0247012450999992008021306004+62600+009667FM-12+060699999V0203201N010010120019N0300001N1+00041-00621103171ADDAA112000391AA224000391AJ100609199999999AY171061AY261061GF105991051051012501001001IA1239KA1120N-00101MA1999999095751MD1010051+9999MW1011REMSYN100AAXX  13061 01245 11680 53210 10004 21062 39575 40317 50005 69932 70176 85500 333 21010 47060 70003;
0171012450999992008021309004+62600+009667FM-12+060699999V0202401N010010042019N0100001N1-00081-00301103391ADDAY181031AY221031GF106991061021004501001001MA1999999095921MD1310171+9999MW1851REMSYN082AAXX  13091 01245 41460 62410 11008 21030 39592 40339 53017 78582 86200 333 4////;
0177012450999992008021312004+62600+009667FM-12+060699999V0203001N010010042019N0100001N1-00151-00521103521ADDAY181061AY221061GF107991071021004501999999MA1999999096021MD1110121+9999MW1851REMSYN088AAXX  13121 01245 11460 73010 11015 21052 39602 40352 51012 6//// 78582 872// 333 4////;
0207012450999992008021318004+62600+009667FM-12+060699999V0203001N003010021019N0060001N1-00451-00611103911ADDAA112003091AY181061AY281061GF107991071021002501999999KA1120M+00181MA1999999096311MD1210161+9999MW1851REMSYN094AAXX  13181 01245 11356 73003 11045 21061 39631 40391 52016 60032 78588 872// 333 10018 4////;
0247012450999992008021406004+62600+009667FM-12+060699999V0200901N001010021019N0060001N1-00421-00581104171ADDAA112003091AA224005891AJ100719199999999AY181061AY221061GF107991071021002501999999IA1239KA1120N-00501MA1999999096561MD1410001+9999MW1851REMSYN100AAXX  14061 01245 11356 70901 11042 21058 39656 40417 54001 60032 78582 872// 333 21050 47071 70058;
0171012450999992008021409004+62600+009667FM-12+060699999V0201401N001010021019N0060001N1-00441-00621104211ADDAY181031AY281031GF107991071021002501999999MA1999999096581MD1210031+9999MW1851REMSYN082AAXX  14091 01245 41356 71401 11044 21062 39658 40421 52003 78588 872// 333 4////;
0177012450999992008021412004+62600+009667FM-12+060699999V0203001N001010042019N0100001N1-00401-00601104161ADDAY181061AY281061GF106991061021004501001001MA1999999096551MD1810041+9999MW1851REMSYN088AAXX  14121 01245 11460 63001 11040 21060 39655 40416 58004 6//// 78588 86200 333 4////;
0207012450999992008021418004+62600+009667FM-12+060699999V0203601N003010042019N0100001N1-00371-00831104161ADDAA112002091AY181061AY221061GF106991061021004501001001KA1120M-00301MA1999999096561MD1310071+9999MW1851REMSYN094AAXX  14181 01245 11460 63603 11037 21083 39656 40416 53007 60022 78582 86200 333 11030 4////;
0247012450999992008021506004+62600+009667FM-12+060699999V0209999C000010075019N0200001N1-00681-00911104501ADDAA112000021AA224001591AJ100729199999999AY181061AY221061GF106991061021008001001001IA1239KA1120N-00731MA1999999096781MD1310031+9999MW1851REMSYN100AAXX  15061 01245 11570 60000 11068 21091 39678 40450 53003 69912 78582 86200 333 21073 47072 70016;
0171012450999992008021509004+62600+009667FM-12+060699999V0209999C000010120019N0300001N1-00491-00811104451ADDAY181031AY221031GF106991061011012501001001MA1999999096801MD1210021+9999MW1011REMSYN082AAXX  15091 01245 41680 60000 11049 21081 39680 40445 52002 70182 86100 333 4////;
0177012450999992008021512004+62600+009667FM-12+060699999V0209999C000010120019N0300001N1-00411-00891104401ADDAY181061AY221061GF107991071051012501999999MA1999999096771MD1710031+9999MW1031REMSYN088AAXX  15121 01245 11680 70000 11041 21089 39677 40440 57003 6//// 70382 875// 333 4////;
0207012450999992008021518004+62600+009667FM-12+060699999V0209999C000012200019N0300001N1-00931-01461104351ADDAA112000021AY121061AY201061GF104991001001999999001051KA1120M-00281MA1999999096571MD1710041+9999MW1031REMSYN094AAXX  15181 01245 11980 40000 11093 21146 39657 40435 57004 69902 70320 80005 333 11028 4////;
0266012450999992008021606004+62600+009667FM-12+060699999V0209999C000010210019N0300001N1-00701-01241103561ADDAA112000091AA224000021AJ100699199999999AY121061AY201061GF105991051001022501011001IA1239KA1120N-01061MA1999999095921MD1810261+9999MW1031REMSYN100AAXX  16061 01245 11880 50000 11070 21124 39592 40356 58026 60002 70320 85010 333 21106 47069 70000;EQDQ01  00002PRCP12
0171012450999992008021609004+62600+009667FM-12+060699999V0203301N001010210019N0300001N1-00621-01181103341ADDAY121031AY221031GF107991071001022501071999MA1999999095721MD1610181+9999MW1031REMSYN082AAXX  16091 01245 41880 73301 11062 21118 39572 40334 56018 70322 8707/ 333 4////;
0177012450999992008021612004+62600+009667FM-12+060699999V0209999C000010210019N0300001N1-00551-01031103161ADDAY121061AY221061GF107991071001022501071999MA1999999095581MD1610131+9999MW1021REMSYN088AAXX  16121 01245 11880 70000 11055 21103 39558 40316 56013 6//// 70222 8707/ 333 4////;
0226012450999992008021618004+62600+009667FM-12+060699999V0202701N003010021019N0100001N1+00081-00051102262ADDAA112000021AY171061AY221061GF107991071001002501021999KA1120M+00211MA1999999094921MD1710271+9999MW1711REMSYN094AAXX  16181 01245 11360 72703 10008 21005 39492 40226 57027 69912 77172 8702/ 333 10021 4////;EQDQ01+102263APOSLP
0247012450999992008021706004+62600+009667FM-12+060699999V0202601N003010042019N0200001N1+00131+00001101371ADDAA112005191AA224005191AJ100639199999999AY181061AY221061GF108991081031004501999999IA1239KA1120N+00051MA1999999094101MD1510051+9999MW1841REMSYN100AAXX  17061 01245 11470 82603 10013 21000 39410 40137 55005 60052 78482 883// 333 20005 47063 70051;
0171012450999992008021709004+62600+009667FM-12+060699999V0203201N003010021019N0060001N1+00051-00031101411ADDAY181031AY281031GF108991081031002501999999MA1999999094121MD1210031+9999MW1851REMSYN082AAXX  17091 01245 41356 83203 10005 21003 39412 40141 52003 78588 883// 333 4////;
0177012450999992008021712004+62600+009667FM-12+060699999V0203201N003010021019N0100001N1+00211+00121101331ADDAY181061AY281061GF107991071031002501999999MA1999999094081MD1710041+9999MW1841REMSYN088AAXX  17121 01245 11360 73203 10021 20012 39408 40133 57004 6//// 78488 873// 333 4////;
0207012450999992008021718004+62600+009667FM-12+060699999V0202701N007010075019N0200001N1+00361-00081101391ADDAA112016091AY181061AY221061GF106991061021008001001001KA1120M+00441MA1999999094171MD1310101+9999MW1801REMSYN094AAXX  17181 01245 11570 62707 10036 21008 39417 40139 53010 60162 78082 86200 333 10044 4////;
0247012450999992008021806004+62600+009667FM-12+060699999V0202701N005010021019N0100001N1+00081-00081101701ADDAA112000591AA224016591AJ100639199999999AY181061AY221061GF107991071031002501999999IA1239KA1120N+00081MA1999999094401MD1510041+9999MW1851REMSYN100AAXX  18061 01245 11360 72705 10008 21008 39440 40170 55004 69942 78582 873// 333 20008 47063 70166;
0171012450999992008021809004+62600+009667FM-12+060699999V0203001N001010012019N0060001N1+00061-00051101681ADDAY181031AY271031GF108991081001001501021999MA1999999094371MD1710021+9999MW1711REMSYN082AAXX  18091 01245 41256 83001 10006 21005 39437 40168 57002 77187 8802/ 333 4////;
0177012450999992008021812004+62600+009667FM-12+060699999V0202701N001010021019N0060001N1+00051-00021101701ADDAY181061AY271061GF108991081001002501021999MA1999999094381MD1210011+9999MW1711REMSYN088AAXX  18121 01245 11356 82701 10005 21002 39438 40170 52001 6//// 77187 8802/ 333 4////;
0207012450999992008021818004+62600+009667FM-12+060699999V0203201N003010042019N0100001N1+00251-00091101771ADDAA112015091AY171061AY261061GF106991061051004501001001KA1120M+00281MA1999999094511MD1110081+9999MW1601REMSYN094AAXX  18181 01245 11460 63203 10025 21009 39451 40177 51008 60152 76076 86500 333 10028 4////;
0247012450999992008021906004+62600+009667FM-12+060699999V0209999C000010021019N0060001N1+00031-00081101891ADDAA112002091AA224016891AJ100689199999999AY171061AY261061GF108991081001002501021999IA1239KA1120N+00031MA1999999094561MD1710031+9999MW1711REMSYN100AAXX  19061 01245 11356 80000 10003 21008 39456 40189 57003 60022 77176 8802/ 333 20003 47068 70167;
0171012450999992008021909004+62600+009667FM-12+060699999V0203001N003010075019N0200001N1+00181-00041101851ADDAY171031AY261031GF106991051051008001031001MA1999999094561MD1710011+9999MW1011REMSYN082AAXX  19091 01245 41570 63003 10018 21004 39456 40185 57001 70176 85530 333 4////;
0177012450999992008021912004+62600+009667FM-12+060699999V0203001N003010075019N0200001N1+00331-00091101751ADDAY171061AY221061GF105991051051008001001001MA1999999094511MD1810061+9999MW1011REMSYN088AAXX  19121 01245 11570 53003 10033 21009 39451 40175 58006 6//// 70172 85500 333 4////;
0207012450999992008021918004+62600+009667FM-12+060699999V0203301N001010300019N0300001N1+00161-00081101651ADDAA112000891AY121061AY221061GF106991011011012501071001KA1120M+00421MA1999999094371MD1710101+9999MW1021REMSYN094AAXX  19181 01245 11680 63301 10016 21008 39437 40165 57010 69982 70222 81170 333 10042 4////;
0266012450999992008022006004+62600+009667FM-12+060699999V0200901N001010120019N0300001N1+00021-00281101351ADDAA112000091AA224000891AJ100669199999999AY121061AY201061GF106991061051012501001001IA1239KA1120N-00041MA1999999094061MD1710061+9999MW1031REMSYN100AAXX  20061 01245 11680 60901 10002 21028 39406 40135 57006 60002 70320 86500 333 21004 47066 70008;EQDQ01  00002PRCP12
0171012450999992008022009004+62600+009667FM-12+060699999V0209999C000010075019N0200001N1+00041-00091101271ADDAY121031AY221031GF106991061051008001001001MA1999999093981MD1710071+9999MW1011REMSYN082AAXX  20091 01245 41570 60000 10004 21009 39398 40127 57007 70122 86500 333 4////;
0177012450999992008022012004+62600+009667FM-12+060699999V0200901N001010075019N0300001N1+00371-00291100941ADDAY121061AY221061GF106991061051008001001001MA1999999093761MD1810231+9999MW1011REMSYN088AAXX  20121 01245 11580 60901 10037 21029 39376 40094 58023 6//// 70122 86500 333 4////;
0226012450999992008022018004+62600+009667FM-12+060699999V0202301N001010120019N0300001N1+00231-00581100481ADDAA112000091AY121061AY221061GF106991061051012501001001KA1120M+00481MA1999999093301MD1610221+9999MW1021REMSYN094AAXX  20181 01245 11680 62301 10023 21058 39330 40048 56022 60002 70222 86500 333 10048 4////;EQDQ01  00002PRCP12
0282012450999992008022106004+62600+009667FM-12+060699999V0202301N003010120019N0300001N1-00031-00711099341ADDAA112000091AA224000091AJ100659199999999AY121061AY221061GF106991061051012501001001IA1239KA1120N-00031MA1999999092171MD1810361+9999MW1021REMSYN100AAXX  21061 01245 11680 62303 11003 21071 39217 49934 58036 60002 70222 86500 333 21003 47065 70000;EQDQ01  00002PRCP24Q02  00002PRCP12
0171012450999992008022109004+62600+009667FM-12+060699999V0202301N005012200019N0300001N1+00211-00691098991ADDAY121031AY201031GF104991031011012501001081MA1999999091911MD1610291+9999MW1011REMSYN082AAXX  21091 01245 41680 42305 10021 21069 39191 49899 56029 70120 83108 333 4////;
0177012450999992008022112004+62600+009667FM-12+060699999V0202301N007010120019N0300001N1+00331-00561098641ADDAY121061AY201061GF107991051081008001011999MA1999999091621MD1810281+9999MW1031REMSYN088AAXX  21121 01245 11580 72307 10033 21056 39162 49864 58028 6//// 70320 8581/ 333 4////;
0274012450999992008022118004+62600+009667FM-12+060699999V0202901N010010120019N0300001N1+00571-00311097592ADDAA112000091AY121061AY221061GF107991071081008001999999KA1120M+00611MA1999999090702MD1810552+9999MW1021REMSYN094AAXX  21181 01245 11580 72910 10057 21031 39070 49759 58055 60002 70222 878// 333 10061 4////;EQDQ01+090703APOSP Q02+097593APOSLPQ03+000552APC3  Q04  00002PRCP12
0247012450999992008022206004+62600+009667FM-12+060699999V0202701N001010012019N0060001N1-00191-00261097891ADDAA112007991AA224007991AJ100729199999999AY181061AY221061GF108991081001001501021999IA1239KA1120N-00191MA1999999090781MD1110281+9999MW1731REMSYN100AAXX  22061 01245 11256 82701 11019 21026 39078 49789 51028 60082 77382 8802/ 333 21019 47072 70080;
0171012450999992008022209004+62600+009667FM-12+060699999V0203001N001010021019N0060001N1-00101-00241097721ADDAY171031AY221031GF108991081001002501021999MA1999999090661MD1510121+9999MW1701REMSYN082AAXX  22091 01245 41356 83001 11010 21024 39066 49772 55012 77072 8802/ 333 4////;
0177012450999992008022212004+62600+009667FM-12+060699999V0203001N001010042019N0100001N1+00001-00271097581ADDAY171061AY221061GF107991071051004501999999MA1999999090551MD1610111+9999MW1701REMSYN088AAXX  22121 01245 11460 73001 10000 21027 39055 49758 56011 6//// 77072 875// 333 4////;
0207012450999992008022218004+62600+009667FM-12+060699999V0202701N001010021019N0060001N1-00141-00271097711ADDAA112003091AY181061AY271061GF107991071021002501999999KA1120M+00101MA1999999090631MD1310131+9999MW1851REMSYN094AAXX  22181 01245 11356 72701 11014 21027 39063 49771 53013 60032 78587 872// 333 10010 4////;
0247012450999992008022306004+62600+009667FM-12+060699999V0203001N007010021019N0060001N1-00271-00371099301ADDAA112008991AA224012291AJ100909199999999AY181061AY281061GF107991071031002501999999IA1239KA1120N-00311MA1999999092071MD1310341+9999MW1851REMSYN100AAXX  23061 01245 11356 73007 11027 21037 39207 49930 53034 60092 78588 873// 333 21031 47090 70121;
0171012450999992008022309004+62600+009667FM-12+060699999V0202301N005010042019N0100001N1-00211-00491099671ADDAY181031AY211031GF106991061021004501001001MA1999999092431MD1310381+9999MW1011REMSYN082AAXX  23091 01245 41460 62305 11021 21049 39243 49967 53038 70181 86200 333 4////;
0177012450999992008022312004+62600+009667FM-12+060699999V0202701N003012200019N0300001N1+00021-00541099881ADDAY121061AY201061GF104991031021008001051001MA1999999092681MD1310231+9999MW1011REMSYN088AAXX  23121 01245 11580 42703 10002 21054 39268 49988 53023 6//// 70120 83250 333 4////;
0207012450999992008022318004+62600+009667FM-12+060699999V0203001N001010075019N0300001N1-00031-00621099701ADDAA112000391AY121061AY201061GF107991071021008001999999KA1120M+00041MA1999999092511MD1810211+9999MW1031REMSYN094AAXX  23181 01245 11580 73001 11003 21062 39251 49970 58021 69932 70320 872// 333 10004 4////;
0266012450999992008022406004+62600+009667FM-12+060699999V0202701N010012200019N0300001N1+00301-00471098781ADDAA112000091AA224000391AJ100859199999999AY121061AY201061GF104991041021008001001001IA1239KA1120N-00011MA1999999091731MD1510001+9999MW1021REMSYN100AAXX  24061 01245 11580 42710 10030 21047 39173 49878 55000 60002 70220 84200 333 21001 47085 70003;EQDQ01  00002PRCP12
0171012450999992008022409004+62600+009667FM-12+060699999V0202401N012012200019N0400001N1+00281-00601098751ADDAY111031AY201031GF103991001001999999001011MA1999999091711MD1510021+9999MW1011REMSYN082AAXX  24091 01245 41982 32412 10028 21060 39171 49875 55002 70110 80001 333 4////;
0177012450999992008022412004+62600+009667FM-12+060699999V0203001N003010042019N0150001N1+00071-00141099041ADDAY121061AY221061GF107991071031004501999999MA1999999091921MD1310221+9999MW1851REMSYN088AAXX  24121 01245 11465 73003 10007 21014 39192 49904 53022 6//// 78522 873// 333 4////;
0207012450999992008022418004+62600+009667FM-12+060699999V0202701N003010150019N0300001N1+00011-00381099001ADDAA112000391AY181061AY221061GF107991071001017501011999KA1120M+00441MA1999999091871MD1310041+9999MW1011REMSYN094AAXX  24181 01245 11780 72703 10001 21038 39187 49900 53004 69932 70182 8701/ 333 10044 4////;
0247012450999992008022506004+62600+009667FM-12+060699999V0203001N001012200019N0300001N1-00301-00721099521ADDAA112006192AA224005892AJ100919199999999AY181061AY211061GF104991041011012501001001IA1239KA1120N-00301MA1999999092271MD1110201+9999MW1011REMSYN100AAXX  25061 01245 11680 43001 11030 21072 39227 49952 51020 60062 70181 84100 333 21030 47091 70059;
0171012450999992008022509004+62600+009667FM-12+060699999V0203001N001010075019N0300001N1-00321-00661099701ADDAY181031AY211031GF105991051021008001001001MA1999999092431MD1310171+9999MW1031REMSYN082AAXX  25091 01245 41580 53001 11032 21066 39243 49970 53017 70381 85200 333 4////;
0177012450999992008022512004+62600+009667FM-12+060699999V0202701N003010075019N0300001N1-00181-00441099811ADDAY181061AY211061GF105991051021008001001001MA1999999092571MD1210131+9999MW1851REMSYN088AAXX  25121 01245 11580 52703 11018 21044 39257 49981 52013 6//// 78581 85200 333 4////;
0207012450999992008022518004+62600+009667FM-12+060699999V0203601N001012200019N0300001N1-00421-00831100091ADDAA112000021AY181061AY211061GF103991021011012501001011KA1120M-00181MA1999999092771MD1310121+9999MW1011REMSYN094AAXX  25181 01245 11680 33601 11042 21083 39277 40009 53012 69902 70181 82101 333 11018 4////;
0266012450999992008022606004+62600+009667FM-12+060699999V0202401N001010075019N0200001N1-00121-00591098841ADDAA112000091AA224000021AJ100869199999999AY171061AY221061GF107991071051008001999999IA1239KA1120N-00601MA1999999091681MD1810451+9999MW1011REMSYN100AAXX  26061 01245 11570 72401 11012 21059 39168 49884 58045 69912 70172 875// 333 21060 47086 70001;EQDQ01  00002PRCP12
0171012450999992008022609004+62600+009667FM-12+060699999V0202401N005010120019N0300001N1+00101-00651098451ADDAY121031AY201031GF106991051051012501001091MA1999999091381MD1610291+9999MW1031REMSYN082AAXX  26091 01245 41680 62405 10010 21065 39138 49845 56029 70320 85509 333 4////;
0177012450999992008022612004+62600+009667FM-12+060699999V0203601N003010750019N0300001N1+00351-00491098091ADDAY121061AY201061GF105991041051012501001091MA1999999091111MD1810281+9999MW1011REMSYN088AAXX  26121 01245 11680 53603 10035 21049 39111 49809 58028 6//// 70120 84509 333 4////;
0226012450999992008022618004+62600+009667FM-12+060699999V0203001N001010120019N0300001N1+00231-00441097631ADDAA112000091AY171061AY221061GF106991061051012501001001KA1120M+00431MA1999999090661MD1710211+9999MW1011REMSYN094AAXX  26181 01245 11680 63001 10023 21044 39066 49763 57021 69912 70172 86500 333 10043 4////;EQDQ01  00002PRCP12
0282012450999992008022706004+62600+009667FM-12+060699999V0209999C000012200019N0300001N1-00481-00661097971ADDAA112000091AA224000091AJ100849199999999AY121061AY201061GF104991041041012501001001IA1239KA1120N-00511MA1999999090801MD1310141+9999MW1031REMSYN100AAXX  27061 01245 11680 40000 11048 21066 39080 49797 53014 60002 70320 84400 333 21051 47084 70001;EQDQ01  00002PRCP24Q02  00002PRCP12
0171012450999992008022709004+62600+009667FM-12+060699999V0209999C000012200019N0300001N1-00471-00661098161ADDAY111031AY201031GF104991031041012501001011MA1999999090971MD1310161+9999MW1011REMSYN082AAXX  27091 01245 41680 40000 11047 21066 39097 49816 53016 70110 83401 333 4////;
0177012450999992008022712004+62600+009667FM-12+060699999V0202701N001010075019N0200001N1+00101-00271098211ADDAY171061AY211061GF106991061051008001001001MA1999999091161MD1310191+9999MW1701REMSYN088AAXX  27121 01245 11570 62701 10010 21027 39116 49821 53019 6//// 77071 86500 333 4////;
0207012450999992008022718004+62600+009667FM-12+060699999V0202701N007010042019N0060001N1-00061-00311098821ADDAA112002091AY171061AY221061GF107991071051004501999999KA1120M+00201MA1999999091681MD1310271+9999MW1711REMSYN094AAXX  27181 01245 11456 72707 11006 21031 39168 49882 53027 60022 77172 875// 333 10020 4////;
0247012450999992008022806004+62600+009667FM-12+060699999V0209999C000010120019N0300001N1-00471-00771100121ADDAA112000891AA224003091AJ100879199999999AY171061AY221061GF105991051051012501001001IA1239KA1120N-00471MA1999999092781MD1210141+9999MW1011REMSYN100AAXX  28061 01245 11680 50000 11047 21077 39278 40012 52014 69972 70172 85500 333 21047 47087 70031;
0171012450999992008022809004+62600+009667FM-12+060699999V0209999C000010042019N0100001N1-00421-00901100211ADDAY171031AY221031GF107991071051004501999999MA1999999092881MD1210101+9999MW1701REMSYN082AAXX  28091 01245 41460 70000 11042 21090 39288 40021 52010 77072 875// 333 4////;
0177012450999992008022812004+62600+009667FM-12+060699999V0203001N001012200019N0300001N1-00061-00661100091ADDAY171061AY211061GF103991031011012501001001MA1999999092871MD1810031+9999MW1011REMSYN088AAXX  28121 01245 11680 33001 11006 21066 39287 40009 58003 6//// 70171 83100 333 4////;
0207012450999992008022818004+62600+009667FM-12+060699999V0209999C000010300019N0300001N1-00161-00861099751ADDAA112000021AY121061AY201061GF107991011011012501011999KA1120M+00081MA1999999092521MD1810261+9999MW1031REMSYN094AAXX  28181 01245 11680 70000 11016 21086 39252 49975 58026 69912 70320 8111/ 333 10008 4////;
0247012450999992008022906004+62600+009667FM-12+060699999V0209999C000010042019N0100001N1-00281-00601099711ADDAA112001091AA224001091AJ100869199999999AY171061AY221061GF107991071051004501999999IA1239KA1120N-00331MA1999999092461MD1510191+9999MW1711REMSYN100AAXX  29061 01245 11460 70000 11028 21060 39246 49971 55019 69992 77172 875// 333 21033 47086 70010;
0171012450999992008022909004+62600+009667FM-12+060699999V0209999C000010150019N0300001N1-00161-00671099451ADDAY171031AY221031GF108991081001017501021999MA1999999092251MD1610211+9999MW1021REMSYN082AAXX  29091 01245 41780 80000 11016 21067 39225 49945 56021 70272 8802/ 333 4////;
0177012450999992008022912004+62600+009667FM-12+060699999V0202701N001010750019N0300001N1+00231-00701099141ADDAY171061AY221061GF106991011011012501001081MA1999999092061MD1810191+9999MW1011REMSYN088AAXX  29121 01245 11680 62701 10023 21070 39206 49914 58019 6//// 70172 81108 333 4////;
0258012450999992008022918004+62600+009667FM-12+060699999V0202201N007010120019N0300001N1+00081-00791098252ADDAA112000021AY121061AY221061GF107991071011012501001001KA1120M+00401MA1999999091202MD1810532+9999MW1031REMSYN094AAXX  29181 01245 11680 72207 10008 21079 39120 49825 58053 69902 70322 87100 333 10040 4////;EQDQ01+091203APOSP Q02+098253APOSLPQ03+000532APC3  
0266012450999992008030106004+62600+009667FM-12+060699999V0203401N003010075019N0200001N1+00041-00521096771ADDAA112000091AA224000021AJ100839199999999AY121061AY221061GF106991061051008001999999IA1239KA1120N+00001MA1999999089811MD1510071+9999MW1011REMSYN100AAXX  01061 01245 11570 63403 10004 21052 38981 49677 55007 60002 70122 865// 333 20000 47083 70000;EQDQ01  00002PRCP12
0171012450999992008030109004+62600+009667FM-12+060699999V0202301N001010300019N0300001N1+00111-00551096861ADDAY121031AY221031GF108991021011012501011999MA1999999089911MD1310101+9999MW1031REMSYN082AAXX  01091 01245 41680 82301 10011 21055 38991 49686 53010 70322 8211/ 333 4////;
0197012450999992008030112004+62600+009667FM-12+060699999V0202301N007010150019N0300001N1+00241-00541999999ADDAY121061AY221061GF106991061081012501001001MD1210061+9999MW1011REMSYN088AAXX  01121 01245 11680 62307 10024 21054 39887 40647 52006 6//// 70122 86800 333 4////;EQDQ01+098873APOSP Q02+106473APOSLP
0226012450999992008030118004+62600+009667FM-12+060699999V0209999C000010300019N0300001N1+00081-00361097201ADDAA112000091AY171061AY221061GF107991041051012501021999KA1120M+00331MA1999999090221MD1210191+9999MW1011REMSYN094AAXX  01181 01245 11680 70000 10008 21036 39022 49720 52019 69902 70172 8452/ 333 10033 4////;EQDQ01  00002PRCP12
0282012450999992008030206004+62600+009667FM-12+060699999V0201401N001019999999N0300001N1-00381-00991097761ADDAA112000091AA224000091AJ100829199999999AY121061AY221061GF108991081999017501011999IA1239KA1120N-00381MA1999999090621MD1210121+9999MW1031REMSYN100AAXX  02061 01245 11780 81401 11038 21099 39062 49776 52012 60002 70322 88/1/ 333 21038 47082 70000;EQDQ01  00002PRCP24Q02  00002PRCP12
0171012450999992008030209004+62600+009667FM-12+060699999V0202701N001010300019N0300001N1-00291-00961097901ADDAY121031AY211031GF105991021051012501031001MA1999999090771MD1210151+9999MW1031REMSYN082AAXX  02091 01245 41680 52701 11029 21096 39077 49790 52015 70321 82530 333 4////;
0177012450999992008030212004+62600+009667FM-12+060699999V0202901N001010120019N0300001N1+00011-00761097961ADDAY121061AY211061GF106991051051012501031001MA1999999090911MD1210141+9999MW1031REMSYN088AAXX  02121 01245 11680 62901 10001 21076 39091 49796 52014 6//// 70321 85530 333 4////;
0242012450999992008030218004+62600+009667FM-12+060699999V0202301N001010042019N0100001N1-00151-00421098772ADDAA112000591AY181061AY221061GF107991071021004501999999KA1120M+00151MA1999999091621MD1310512+9999MW1851REMSYN094AAXX  02181 01245 11460 72301 11015 21042 39162 49877 53051 69942 78582 872// 333 10015 4////;EQDQ01+098773APOSLPQ02+000512APC3  
0247012450999992008030306004+62600+009667FM-12+060699999V0203201N001010075019N0200001N1-00621-00781099461ADDAA112002091AA224002391AJ100879199999999AY181061AY221061GF105991051021008001001001IA1239KA1120N-00621MA1999999092131MD1310091+9999MW1011REMSYN100AAXX  03061 01245 11570 53201 11062 21078 39213 49946 53009 60022 70182 85200 333 21062 47087 70023;
0171012450999992008030309004+62600+009667FM-12+060699999V0203201N001010075019N0200001N1-00531-00831099611ADDAY181031AY221031GF106991061021008001001001MA1999999092301MD1310151+9999MW1851REMSYN082AAXX  03091 01245 41570 63201 11053 21083 39230 49961 53015 78582 86200 333 4////;
0177012450999992008030312004+62600+009667FM-12+060699999V0202701N001010075019N0200001N1-00331-00961099711ADDAY181061AY221061GF106991061021008001001001MA1999999092451MD1310151+9999MW1011REMSYN088AAXX  03121 01245 11570 62701 11033 21096 39245 49971 53015 6//// 70182 86200 333 4////;
0207012450999992008030318004+62600+009667FM-12+060699999V0209999C000010042019N0100001N1-00711-01181100171ADDAA112000021AY181061AY221061GF107991071021004501999999KA1120M-00241MA1999999092771MD1310231+9999MW1851REMSYN094AAXX  03181 01245 11460 70000 11071 21118 39277 40017 53023 69912 78582 872// 333 11024 4////;
0247012450999992008030406004+62600+009667FM-12+060699999V0203001N003010042019N0060001N1-00661-00891100421ADDAA112002092AA224001892AJ100879199999999AY181061AY271061GF108991081001004501021999IA1239KA1120N-00801MA1999999093021MD1310111+9999MW1701REMSYN100AAXX  04061 01245 11456 83003 11066 21089 39302 40042 53011 60022 77087 8802/ 333 21080 47087 70019;
0171012450999992008030409004+62600+009667FM-12+060699999V0203001N003010042019N0100001N1-00671-00951100601ADDAY181031AY271031GF106991061021004501001001MA1999999093171MD1110161+9999MW1851REMSYN082AAXX  04091 01245 41460 63003 11067 21095 39317 40060 51016 78587 86200 333 4////;
0177012450999992008030412004+62600+009667FM-12+060699999V0202401N003010006019N0020001N1-00711-00821100771ADDAY181061AY271061GF107991071031000751999999MA1999999093321MD1110161+9999MW1861REMSYN088AAXX  04121 01245 11120 72403 11071 21082 39332 40077 51016 6//// 78687 873// 333 4////;
0207012450999992008030418004+62600+009667FM-12+060699999V0203001N003010021019N0060001N1-00601-00761101051ADDAA112014091AY181061AY281061GF107991071031002501999999KA1120M-00481MA1999999093621MD1010051+9999MW1851REMSYN094AAXX  04181 01245 11356 73003 11060 21076 39362 40105 50005 60142 78588 873// 333 11048 4////;
0247012450999992008030506004+62600+009667FM-12+060699999V0203001N005010021019N0100001N1-00451-00801101461ADDAA112017091AA224031591AJ101299199999999AY181061AY221061GF106991061021002501001001IA1239KA1120N-00621MA1999999094031MD1010021+9999MW1851REMSYN100AAXX  05061 01245 11360 63005 11045 21080 39403 40146 50002 60172 78582 86200 333 21062 47129 70314;
0171012450999992008030509004+62600+009667FM-12+060699999V0203201N001010210019N0300001N1-00421-01131101041ADDAY181031AY211031GF108991081001022501011999MA1999999093661MD1810371+9999MW1031REMSYN082AAXX  05091 01245 41880 83201 11042 21113 39366 40104 58037 70381 8801/ 333 4////;
0177012450999992008030512004+62600+009667FM-12+060699999V0202701N007010300019N0100001N1-00311-00871100341ADDAY181061AY271061GF108991041071004501021999MA1999999093031MD1810621+9999MW1701REMSYN088AAXX  05121 01245 11460 82707 11031 21087 39303 40034 58062 6//// 77087 8472/ 333 4////;
0242012450999992008030518004+62600+009667FM-12+060699999V0202301N001010300019N0300001N1+00011-00651099062ADDAA112000021AY171061AY221061GF107991041071012501021999KA1120M+00101MA1999999091922MD1610471+9999MW1011REMSYN094AAXX  05181 01245 11680 72301 10001 21065 39192 49906 56047 69922 70172 8472/ 333 10010 4////;EQDQ01+091923APOSP Q02+099063APOSLP
0247012450999992008030606004+62600+009667FM-12+060699999V0203001N012010021019N0010001N1-00221-00401098911ADDAA112002091AA224002091AJ101219199999999AY181061AY221061GF107991071031002501999999IA1239KA1120N-00221MA1999999091721MD1310171+9999MW1851REMSYN100AAXX  06061 01245 11310 73012 11022 21040 39172 49891 53017 60022 78582 873// 333 21022 47121 70020;
0171012450999992008030609004+62600+009667FM-12+060699999V0203201N012010021019N0030001N1-00281-00541099301ADDAY181031AY281031GF107991071031002501999999MA1999999092071MD1310341+9999MW1851REMSYN082AAXX  06091 01245 41330 73212 11028 21054 39207 49930 53034 78588 873// 333 4////;
0177012450999992008030612004+62600+009667FM-12+060699999V0203001N019010006019N0003001N1-00381-00541099591ADDAY181061AY281061GF107991071031000751999999MA1999999092321MD1310241+9999MW1861REMSYN088AAXX  06121 01245 11103 73019 11038 21054 39232 49959 53024 6//// 78688 873// 333 4////;
0207012450999992008030618004+62600+009667FM-12+060699999V0203001N005012200019N0200001N1-00421-00801100191ADDAA112002091AY181061AY211061GF104991041081008001001001KA1120M-00051MA1999999092871MD1110221+9999MW1011REMSYN094AAXX  06181 01245 11570 43005 11042 21080 39287 40019 51022 60022 70181 84800 333 11005 4////;
0266012450999992008030706004+62600+009667FM-12+060699999V0203601N001010750019N0300001N1-00621-00921100581ADDAA112000091AA224001591AJ101149199999999AY181061AY211061GF106991031011008001001081IA1239KA1120N-00641MA1999999093171MD1310011+9999MW1011REMSYN100AAXX  07061 01245 11580 63601 11062 21092 39317 40058 53001 69912 70181 83108 333 21064 47114 70016;EQDQ01  00002PRCP12
0171012450999992008030709004+62600+009667FM-12+060699999V0203001N001010750019N0300001N1-00301-01081100411ADDAY121031AY221031GF106991041001022501011091MA1999999093101MD1810081+9999MW1031REMSYN082AAXX  07091 01245 41880 63001 11030 21108 39310 40041 58008 70322 84019 333 4////;
0177012450999992008030712004+62600+009667FM-12+060699999V0203401N001010750019N0300001N1+00041-01191100071ADDAY121061AY221061GF106991041001022501011091MA1999999092871MD1810221+9999MW1021REMSYN088AAXX  07121 01245 11880 63401 10004 21119 39287 40007 58022 6//// 70222 84019 333 4////;
0226012450999992008030718004+62600+009667FM-12+060699999V0201801N003010750019N0300001N1+00171-00611099641ADDAA112000091AY121061AY221061GF106991041001017501011091KA1120M+00291MA1999999092511MD1610201+9999MW1021REMSYN094AAXX  07181 01245 11780 61803 10017 21061 39251 49964 56020 60002 70222 84019 333 10029 4////;EQDQ01  00002PRCP12
0282012450999992008030806004+62600+009667FM-12+060699999V0202801N001012200019N0300001N1-00181-00761099181ADDAA112000091AA224000091AJ101099199999999AY121061AY211061GF103991021011012501031001IA1239KA1120N-00181MA1999999091981MD1510081+9999MW1011REMSYN100AAXX  08061 01245 11680 32801 11018 21076 39198 49918 55008 60002 70121 82130 333 21018 47109 70000;EQDQ01  00002PRCP24Q02  00002PRCP12
0171012450999992008030809004+62600+009667FM-12+060699999V0202301N001012200019N0300001N1+00111-00741099131ADDAY101031AY201031GF104991011011012501001081MA1999999092021MD1310021+9999MW1031REMSYN082AAXX  08091 01245 41680 42301 10011 21074 39202 49913 53002 70300 81108 333 4////;
0177012450999992008030812004+62600+009667FM-12+060699999V0202201N003010750019N0300001N1+00201-00681099091ADDAY111061AY201061GF106991041011012501001081MA1999999092001MD1810021+9999MW1031REMSYN088AAXX  08121 01245 11680 62203 10020 21068 39200 49909 58002 6//// 70310 84108 333 4////;
0226012450999992008030818004+62600+009667FM-12+060699999V0201401N005010075019N0200001N1+00281-00461098711ADDAA112000091AY121061AY221061GF108991051051008001021999KA1120M+00341MA1999999091671MD1810261+9999MW1031REMSYN094AAXX  08181 01245 11570 81405 10028 21046 39167 49871 58026 60002 70322 8552/ 333 10034 4////;EQDQ01  00002PRCP12
0282012450999992008030906004+62600+009667FM-12+060699999V0200501N007010300019N0300001N1+00301-00381097951ADDAA112000091AA224000091AJ101059199999999AY121061AY221061GF106991031011012501071001IA1239KA1120N+00221MA1999999090971MD1810131+9999MW1011REMSYN100AAXX  09061 01245 11680 60507 10030 21038 39097 49795 58013 60002 70122 83170 333 20022 47105 70000;EQDQ01  00002PRCP24Q02  00002PRCP12
0171012450999992008030909004+62600+009667FM-12+060699999V0203001N003010120019N0300001N1+00411-00341097971ADDAY121031AY221031GF106991061081008001001001MA1999999091021MD1310071+9999MW1011REMSYN082AAXX  09091 01245 41580 63003 10041 21034 39102 49797 53007 70122 86800 333 4////;
0177012450999992008030912004+62600+009667FM-12+060699999V0202301N005010150019N0300001N1+00591-00371098111ADDAY121061AY221061GF105991051081012501001001MA1999999091181MD1210191+9999MW1011REMSYN088AAXX  09121 01245 11680 52305 10059 21037 39118 49811 52019 6//// 70122 85800 333 4////;
0226012450999992008030918004+62600+009667FM-12+060699999V0202301N001019999999N0300001N1+00361-00481098501ADDAA112000091AY121061AY211061GF106991061001008001071001KA1120M+00651MA1999999091501MD1310131+9999MW1021REMSYN094AAXX  09181 01245 11580 62301 10036 21048 39150 49850 53013 60002 70221 86070 333 10065 4////;EQDQ01  00002PRCP12
0282012450999992008031006004+62600+009667FM-12+060699999V0202301N001010300019N0300001N1+00121-00631098711ADDAA112000091AA224000091AJ100959199999999AY121061AY221061GF107991011071012501071001IA1239KA1120N+00001MA1999999091621MD1810051+9999MW1021REMSYN100AAXX  10061 01245 11680 72301 10012 21063 39162 49871 58005 60002 70222 81770 333 20000 47095 70000;EQDQ01  00002PRCP24Q02  00002PRCP12
0171012450999992008031009004+62600+009667FM-12+060699999V0203201N001010150019N0300001N1+00191-00521098671ADDAY121031AY221031GF107991071001017501071001MA1999999091611MD1810021+9999MW1021REMSYN082AAXX  10091 01245 41780 73201 10019 21052 39161 49867 58002 70222 87070 333 4////;
0177012450999992008031012004+62600+009667FM-12+060699999V0209999C000010300019N0300001N1+00361-00461098591ADDAY121061AY221061GF107991031011012501011001MA1999999091571MD1710021+9999MW1021REMSYN088AAXX  10121 01245 11680 70000 10036 21046 39157 49859 57002 6//// 70222 83110 333 4////;
0226012450999992008031018004+62600+009667FM-12+060699999V0209999C000012200019N0300001N1+00151-00541098821ADDAA112000091AY121061AY201061GF102991021011012501001001KA1120M+00531MA1999999091731MD1210111+9999MW1011REMSYN094AAXX  10181 01245 11680 20000 10015 21054 39173 49882 52011 60002 70120 82100 333 10053 4////;EQDQ01  00002PRCP12
0282012450999992008031106004+62600+009667FM-12+060699999V0203201N003010300019N0300001N1+00131-00491098931ADDAA112000091AA224000091AJ100949199999999AY121061AY201061GF106991041011008001041001IA1239KA1120N-00051MA1999999091831MD1010011+9999MW1031REMSYN100AAXX  11061 01245 11580 63203 10013 21049 39183 49893 50001 60002 70320 84140 333 21005 47094 70000;EQDQ01  00002PRCP24Q02  00002PRCP12
0171012450999992008031109004+62600+009667FM-12+060699999V0201201N007010300019N0300001N1+00341-00431098781ADDAY121031AY221031GF105991031021008001041001MA1999999091751MD1810071+9999MW1011REMSYN082AAXX  11091 01245 41580 51207 10034 21043 39175 49878 58007 70122 83240 333 4////;
0177012450999992008031112004+62600+009667FM-12+060699999V0201201N010010042019N0200001N1+00261-00251098671ADDAY181061AY221061GF107991071021004501999999MA1999999091621MD1810111+9999MW1851REMSYN088AAXX  11121 01245 11470 71210 10026 21025 39162 49867 58011 6//// 78582 872// 333 4////;
0207012450999992008031118004+62600+009667FM-12+060699999V0201201N012010042019N0200001N1+00441-00141098261ADDAA112000021AY181061AY221061GF107991051021004501011999KA1120M+00901MA1999999091281MD1810201+9999MW1801REMSYN094AAXX  11181 01245 11470 71212 10044 21014 39128 49826 58020 69902 78082 8521/ 333 10090 4////;
0247012450999992008031206004+62600+009667FM-12+060699999V0201401N019010042019N0200001N1+00231-00151097671ADDAA112000021AA224000021AJ100839199999999AY181061AY221061GF107991071021004501999999IA1239KA1120N+00201MA1999999090681MD1510031+9999MW1801REMSYN100AAXX  12061 01245 11470 71419 10023 21015 39068 49767 55003 69902 78082 872// 333 20020 47083 70000;
0171012450999992008031209004+62600+009667FM-12+060699999V0200901N003010120019N0200001N1+00411-00251097741ADDAY181031AY221031GF106991061081008001001001MA1999999090801MD1310121+9999MW1011REMSYN082AAXX  12091 01245 41570 60903 10041 21025 39080 49774 53012 70182 86800 333 4////;
0177012450999992008031212004+62600+009667FM-12+060699999V0201401N005010120019N0200001N1+00371-00311097891ADDAY181061AY221061GF106991061081008001001001MA1999999090921MD1210111+9999MW1021REMSYN088AAXX  12121 01245 11570 61405 10037 21031 39092 49789 52011 6//// 70282 86800 333 4////;
0207012450999992008031218004+62600+009667FM-12+060699999V0202401N001010120019N0200001N1+00241-00331098181ADDAA112000021AY121061AY221061GF107991071081008001999999KA1120M+00551MA1999999091171MD1210111+9999MW1021REMSYN094AAXX  12181 01245 11570 72401 10024 21033 39117 49818 52011 69902 70222 878// 333 10055 4////;
0266012450999992008031306004+62600+009667FM-12+060699999V0209999C000010300019N0300001N1+00021-00421098821ADDAA112000091AA224000021AJ100809199999999AY121061AY201061GF107991021011012501011999IA1239KA1120N+00021MA1999999091711MD1210141+9999MW1021REMSYN100AAXX  13061 01245 11680 70000 10002 21042 39171 49882 52014 60002 70220 8211/ 333 20002 47080 70000;EQDQ01  00002PRCP12
0171012450999992008031309004+62600+009667FM-12+060699999V0209999C000012200019N0300001N1+00321-00361098891ADDAY121031AY201031GF103991001001999999001021MA1999999091851MD1210151+9999MW1011REMSYN082AAXX  13091 01245 41980 30000 10032 21036 39185 49889 52015 70120 80002 333 4////;
0177012450999992008031312004+62600+009667FM-12+060699999V0202101N001012200019N0300001N1+00311-00411099071ADDAY121061AY201061GF104991011011012501041011MA1999999092011MD1210141+9999MW1031REMSYN088AAXX  13121 01245 11680 42101 10031 21041 39201 49907 52014 6//// 70320 81141 333 4////;
0226012450999992008031318004+62600+009667FM-12+060699999V0203601N001010210019N0300001N1+00151-00581099301ADDAA112000091AY121061AY201061GF105991051001022501031001KA1120M+00421MA1999999092181MD1210091+9999MW1031REMSYN094AAXX  13181 01245 11880 53601 10015 21058 39218 49930 52009 60002 70320 85030 333 10042 4////;EQDQ01  00002PRCP12
0282012450999992008031406004+62600+009667FM-12+060699999V0209999C000010075019N0200001N1-00201-00591099711ADDAA112000091AA224000091AJ100809199999999AY121061AY221061GF107991071001008001021999IA1239KA1120N-00261MA1999999092471MD1310141+9999MW1031REMSYN100AAXX  14061 01245 11570 70000 11020 21059 39247 49971 53014 60002 70322 8702/ 333 21026 47080 70000;EQDQ01  00002PRCP24Q02  00002PRCP12
0171012450999992008031409004+62600+009667FM-12+060699999V0209999C000010075019N0200001N1-00221-00351099861ADDAY171031AY221031GF107991071051008001999999MA1999999092611MD1210141+9999MW1701REMSYN082AAXX  14091 01245 41570 70000 11022 21035 39261 49986 52014 77072 875// 333 4////;
0177012450999992008031412004+62600+009667FM-12+060699999V0209999C000010042019N0200001N1+00091-00181099911ADDAY171061AY221061GF107991071051004501999999MA1999999092731MD1310141+9999MW1701REMSYN088AAXX  14121 01245 11470 70000 10009 21018 39273 49991 53014 6//// 77072 875// 333 4////;
0207012450999992008031418004+62600+009667FM-12+060699999V0202401N001010042019N0100001N1+00011-00211100211ADDAA112000591AY171061AY221061GF108991051051004501021999KA1120M+00251MA1999999093001MD1310141+9999MW1711REMSYN094AAXX  14181 01245 11460 82401 10001 21021 39300 40021 53014 69962 77172 8552/ 333 10025 4////;
0225012450999992008031506004+62600+009667FM-12+060699999V0209999C000012200019N0300001N1-00511-00751100671ADDAA112000021AA224000891AJ100789199999999GF105991021001022501041041IA1239KA1120N-00511MA1999999093281MD1210041+9999REMSYN100AAXX  15061 01245 11880 50000 11051 21075 39328 40067 52004 69922 7//72 82044 333 21051 47078 70008;
0171012450999992008031509004+62600+009667FM-12+060699999V0209999C000012200019N0300001N1-00341-00571100671ADDAY121031AY201031GF104991001001999999001081MA1999999093321MD1210051+9999MW1011REMSYN082AAXX  15091 01245 41980 40000 11034 21057 39332 40067 52005 70120 80008 333 4////;
0177012450999992008031512004+62600+009667FM-12+060699999V0203001N001019999999N0300001N1+00111-00691100531ADDAY121061AY201061GF105991001001999999001081MA1999999093321MD1410001+9999MW1031REMSYN088AAXX  15121 01245 11980 53001 10011 21069 39332 40053 54001 6//// 70320 80008 333 4////;
0207012450999992008031518004+62600+009667FM-12+060699999V0203001N003010021019N0060001N1+00041-00371100531ADDAA112000021AY171061AY221061GF108991081001002501021999KA1120M+00341MA1999999093301MD1310021+9999MW1711REMSYN094AAXX  15181 01245 11356 83003 10004 21037 39330 40053 53002 69912 77172 8802/ 333 10034 4////;
0247012450999992008031606004+62600+009667FM-12+060699999V0202701N001010042019N0100001N1+00001-00361100471ADDAA112002091AA224002391AJ100809199999999AY171061AY221061GF106991051031004501031001IA1239KA1120N-00151MA1999999093231MD1810121+9999MW1011REMSYN100AAXX  16061 01245 11460 62701 10000 21036 39323 40047 58012 60022 70172 85330 333 21015 47080 70022;
0171012450999992008031609004+62600+009667FM-12+060699999V0202701N001010012019N0060001N1-00121-00231100381ADDAY181031AY221031GF108991081031001501999999MA1999999093121MD1710121+9999MW1861REMSYN082AAXX  16091 01245 41256 82701 11012 21023 39312 40038 57012 78682 883// 333 4////;
0177012450999992008031612004+62600+009667FM-12+060699999V0203201N007010021019N0060001N1-00191-00471100281ADDAY181061AY221061GF107991071031002501999999MA1999999093011MD1610111+9999MW1851REMSYN088AAXX  16121 01245 11356 73207 11019 21047 39301 40028 56011 6//// 78582 873// 333 4////;
0207012450999992008031618004+62600+009667FM-12+060699999V0202701N003010300019N0200001N1-00441-00771100241ADDAA112001091AY181061AY221061GF108991041071008001021999KA1120M+00191MA1999999092911MD1710141+9999MW1011REMSYN094AAXX  16181 01245 11570 82703 11044 21077 39291 40024 57014 60012 70182 8472/ 333 10019 4////;
0247012450999992008031706004+62600+009667FM-12+060699999V0202801N003010021019N0060001N1-00621-00861100561ADDAA112004191AA224005191AJ100849199999999AY181061AY221061GF107991071031002501001001IA1239KA1120N-00701MA1999999093161MD1310031+9999MW1861REMSYN100AAXX  17061 01245 11356 72803 11062 21086 39316 40056 53003 60042 78682 87300 333 21070 47084 70052;
0171012450999992008031709004+62600+009667FM-12+060699999V0202701N001010075019N0200001N1-00591-00881100551ADDAY181031AY221031GF106991061021008001001001MA1999999093161MD1410001+9999MW1011REMSYN082AAXX  17091 01245 41570 62701 11059 21088 39316 40055 54000 70182 86200 333 4////;
0177012450999992008031712004+62600+009667FM-12+060699999V0202401N005010300019N0300001N1-00281-00951100341ADDAY181061AY221061GF105991031021012501041001MA1999999093031MD1810121+9999MW1011REMSYN088AAXX  17121 01245 11680 52405 11028 21095 39303 40034 58012 6//// 70182 83240 333 4////;
0207012450999992008031718004+62600+009667FM-12+060699999V0209999C000010021019N0060001N1-00381-00451100171ADDAA112007191AY181061AY221061GF107991071031002501999999KA1120M-00221MA1999999092861MD1310121+9999MW1861REMSYN094AAXX  17181 01245 11356 70000 11038 21045 39286 40017 53012 60072 78682 873// 333 11022 4////;
0247012450999992008031806004+62600+009667FM-12+060699999V0203301N001010021019N0060001N1-00641-00791100691ADDAA112002091AA224008991AJ100999199999999AY181061AY221061GF107991071031002501999999IA1259KA1120N-00691MA1999999093271MD1710071+9999MW1861REMSYN100AAXX  18061 01245 11356 73301 11064 21079 39327 40069 57007 60022 78682 873// 333 21069 41099 70090;
0171012450999992008031809004+62600+009667FM-12+060699999V0202701N001010042019N0170001N1-00461-00561100561ADDAY181031AY221031GF105991051031004501999999MA1999999093201MD1510071+9999MW1861REMSYN082AAXX  18091 01245 41467 52701 11046 21056 39320 40056 55007 78682 853// 333 4////;
0177012450999992008031812004+62600+009667FM-12+060699999V0203001N003010012019N0060001N1-00241-00491100551ADDAY181061AY221061GF108991081031001501999999MA1999999093251MD1110051+9999MW1861REMSYN088AAXX  18121 01245 11256 83003 11024 21049 39325 40055 51005 6//// 78682 883// 333 4////;
0207012450999992008031818004+62600+009667FM-12+060699999V0203001N005010021019N0100001N1-00341-00521100771ADDAA112005191AY181061AY221061GF106991061021002501001001KA1120M-00141MA1999999093421MD1310091+9999MW1011REMSYN094AAXX  18181 01245 11360 63005 11034 21052 39342 40077 53009 60052 70182 86200 333 11014 4////;
0247012450999992008031906004+62600+009667FM-12+060699999V0202801N001010021019N0060001N1-00621-00721101071ADDAA112003091AA224008491AJ100919199999999AY181061AY221061GF107991071031002501999999IA1239KA1120N-00621MA1999999093621MD1710041+9999MW1851REMSYN100AAXX  19061 01245 11356 72801 11062 21072 39362 40107 57004 60032 78582 873// 333 21062 47091 70084;
0171012450999992008031909004+62600+009667FM-12+060699999V0202401N001010021019N0100001N1-00441-00801100961ADDAY181031AY221031GF107991071031002501999999MA1999999093571MD1810051+9999MW1851REMSYN082AAXX  19091 01245 41360 72401 11044 21080 39357 40096 58005 78582 873// 333 4////;
0177012450999992008031912004+62600+009667FM-12+060699999V0202801N001010042019N0100001N1-00321-00861100991ADDAY181061AY221061GF105991051031004501001001MA1999999093631MD1310071+9999MW1011REMSYN088AAXX  19121 01245 11460 52801 11032 21086 39363 40099 53007 6//// 70182 85300 333 4////;
0207012450999992008031918004+62600+009667FM-12+060699999V0202701N001012200019N0400001N1-00611-01191101251ADDAA112001091AY111061AY201061GF103991021041017501041001KA1120M-00151MA1999999093801MD1310071+9999MW1011REMSYN094AAXX  19181 01245 11782 32701 11061 21119 39380 40125 53007 60012 70110 82440 333 11015 4////;
0266012450999992008032006004+62600+009667FM-12+060699999V0202901N001010210019N0400001N1-00671-01301100271ADDAA112000091AA224001391AJ101089199999999AY121061AY201061GF105991051001022501071001IA1239KA1120N-01051MA1999999092871MD1810381+9999MW1021REMSYN100AAXX  20061 01245 11882 52901 11067 21130 39287 40027 58038 60002 70220 85070 333 21105 47108 70013;EQDQ01  00002PRCP12
0171012450999992008032009004+62600+009667FM-12+060699999V0200501N001012200019N0400001N1-00451-01181099771ADDAY121031AY201031GF104991031091017501071001MA1999999092471MD1810401+9999MW1011REMSYN082AAXX  20091 01245 41782 40501 11045 21118 39247 49977 58040 70120 83970 333 4////;
0177012450999992008032012004+62600+009667FM-12+060699999V0203001N001010120019N0300001N1-00181-01011099271ADDAY121061AY201061GF106991051001012501071071MA1999999092071MD1810411+9999MW1031REMSYN088AAXX  20121 01245 11680 63001 11018 21101 39207 49927 58041 6//// 70320 85077 333 4////;
0226012450999992008032018004+62600+009667FM-12+060699999V0202101N010010075019N0200001N1-00381-01011098501ADDAA112000091AY121061AY221061GF108991051051008001011999KA1120M-00051MA1999999091311MD1610281+9999MW1031REMSYN094AAXX  20181 01245 11570 82110 11038 21101 39131 49850 56028 60002 70322 8551/ 333 11005 4////;EQDQ01  00002PRCP12
0282012450999992008032106004+62600+009667FM-12+060699999V0201501N001010075019N0200001N1-00641-01061098991ADDAA112000091AA224000091AJ100999199999999AY181061AY221061GF107991071031008001999999IA1239KA1120N-00641MA1999999091701MD1310331+9999MW1021REMSYN100AAXX  21061 01245 11570 71501 11064 21106 39170 49899 53033 69902 70282 873// 333 21064 47099 70000;EQDQ01  00002PRCP24Q02  00002PRCP12
0171012450999992008032109004+62600+009667FM-12+060699999V0200601N003010075019N0150001N1-00621-01181099401ADDAY171031AY221031GF107991071051008001999999MA1999999092071MD1310411+9999MW1701REMSYN082AAXX  21091 01245 41565 70603 11062 21118 39207 49940 53041 77072 875// 333 4////;
